{
  "contractName": "Art1stTokenInterface",
  "abi": [
    {
      "inputs": [
        {
          "internalType": "address",
          "name": "to",
          "type": "address"
        },
        {
          "internalType": "uint256",
          "name": "amount",
          "type": "uint256"
        }
      ],
      "name": "compensate",
      "outputs": [
        {
          "internalType": "bool",
          "name": "",
          "type": "bool"
        }
      ],
      "stateMutability": "nonpayable",
      "type": "function"
    },
    {
      "inputs": [
        {
          "internalType": "address",
          "name": "from",
          "type": "address"
        },
        {
          "internalType": "address",
          "name": "to",
          "type": "address"
        },
        {
          "internalType": "uint256",
          "name": "amount",
          "type": "uint256"
        }
      ],
      "name": "donate",
      "outputs": [
        {
          "internalType": "bool",
          "name": "",
          "type": "bool"
        }
      ],
      "stateMutability": "nonpayable",
      "type": "function"
    }
  ],
  "bytecode": "0x608060405234801561001057600080fd5b50610244806100206000396000f3fe608060405234801561001057600080fd5b50600436106100365760003560e01c8063386bc05a1461003b5780638a1bd7c01461006b575b600080fd5b610055600480360381019061005091906100d6565b61009b565b6040516100629190610178565b60405180910390f35b61008560048036038101906100809190610129565b6100a4565b6040516100929190610178565b60405180910390f35b60009392505050565b600092915050565b6000813590506100bb816101e0565b92915050565b6000813590506100d0816101f7565b92915050565b6000806000606084860312156100ef576100ee6101db565b5b60006100fd868287016100ac565b935050602061010e868287016100ac565b925050604061011f868287016100c1565b9150509250925092565b600080604083850312156101405761013f6101db565b5b600061014e858286016100ac565b925050602061015f858286016100c1565b9150509250929050565b610172816101a5565b82525050565b600060208201905061018d6000830184610169565b92915050565b600061019e826101b1565b9050919050565b60008115159050919050565b600073ffffffffffffffffffffffffffffffffffffffff82169050919050565b6000819050919050565b600080fd5b6101e981610193565b81146101f457600080fd5b50565b610200816101d1565b811461020b57600080fd5b5056fea2646970667358221220fc3fbd08e078fa5d2c75daab9c083a12e12794efd39b00074e9fffd4a2c676f464736f6c63430008070033",
  "immutableReferences": {},
  "source": "// SPDX-License-Identifier: GPL-3.0\npragma solidity ^0.8.7;\n\nimport \"@openzeppelin/contracts/access/Ownable.sol\";\n\ncontract Art1stTokenInterface {\n    function compensate(address to, uint amount) external returns (bool) {}\n    function donate(address from, address to, uint amount) external returns (bool) {}\n\n}\n\ncontract Batcher is Ownable {\n    address art1stTokenAddress; \n    Art1stTokenInterface Art1stTokenContract;\n\n    constructor(address erc20addr) {\n        art1stTokenAddress = erc20addr;\n        Art1stTokenContract = Art1stTokenInterface(art1stTokenAddress);\n    }\n\n    function batchTransactions(uint[] memory actions, address[] memory froms, address[] memory toes, uint[] memory amounts) public onlyOwner returns (bool){\n        // actions: compensate, donation -> compensate: 1, donation: 2\n        for (uint i=0; i<actions.length; i++) {\n            bool success; \n\n            if (actions[i] == 1){\n                // compensate\n                success = Art1stTokenContract.compensate(toes[i], amounts[i]);\n            }\n            else if (actions[i] == 2) {\n                success = Art1stTokenContract.donate(froms[i], toes[i], amounts[i]);\n            }\n\n            if (!success) revert('transaction failed');\n        }\n\n        return true;\n    }\n}",
  "sourcePath": "/Users/seomingyun/VSworkspace/BEB_space/project/project_3/BEB_02_project3_Art1st/contract/contracts/Batcher.sol",
  "compiler": {
    "name": "solc",
    "version": "0.8.7+commit.e28d00a7.Emscripten.clang"
  },
  "schemaVersion": "3.4.4",
  "updatedAt": "2022-03-25T04:03:12.209Z",
  "devdoc": {
    "kind": "dev",
    "methods": {},
    "version": 1
  },
  "userdoc": {
    "kind": "user",
    "methods": {},
    "version": 1
  }
}