{
  "contractName": "Art1stToken",
  "abi": [
    {
      "inputs": [],
      "stateMutability": "nonpayable",
      "type": "constructor"
    },
    {
      "anonymous": false,
      "inputs": [
        {
          "indexed": true,
          "internalType": "address",
          "name": "owner",
          "type": "address"
        },
        {
          "indexed": true,
          "internalType": "address",
          "name": "spender",
          "type": "address"
        },
        {
          "indexed": false,
          "internalType": "uint256",
          "name": "value",
          "type": "uint256"
        }
      ],
      "name": "Approval",
      "type": "event"
    },
    {
      "anonymous": false,
      "inputs": [
        {
          "indexed": true,
          "internalType": "address",
          "name": "previousOwner",
          "type": "address"
        },
        {
          "indexed": true,
          "internalType": "address",
          "name": "newOwner",
          "type": "address"
        }
      ],
      "name": "OwnershipTransferred",
      "type": "event"
    },
    {
      "anonymous": false,
      "inputs": [
        {
          "indexed": true,
          "internalType": "address",
          "name": "from",
          "type": "address"
        },
        {
          "indexed": true,
          "internalType": "address",
          "name": "to",
          "type": "address"
        },
        {
          "indexed": false,
          "internalType": "uint256",
          "name": "value",
          "type": "uint256"
        }
      ],
      "name": "Transfer",
      "type": "event"
    },
    {
      "inputs": [
        {
          "internalType": "address",
          "name": "owner",
          "type": "address"
        },
        {
          "internalType": "address",
          "name": "spender",
          "type": "address"
        }
      ],
      "name": "allowance",
      "outputs": [
        {
          "internalType": "uint256",
          "name": "",
          "type": "uint256"
        }
      ],
      "stateMutability": "view",
      "type": "function",
      "constant": true
    },
    {
      "inputs": [
        {
          "internalType": "address",
          "name": "spender",
          "type": "address"
        },
        {
          "internalType": "uint256",
          "name": "amount",
          "type": "uint256"
        }
      ],
      "name": "approve",
      "outputs": [
        {
          "internalType": "bool",
          "name": "",
          "type": "bool"
        }
      ],
      "stateMutability": "nonpayable",
      "type": "function"
    },
    {
      "inputs": [
        {
          "internalType": "address",
          "name": "account",
          "type": "address"
        }
      ],
      "name": "balanceOf",
      "outputs": [
        {
          "internalType": "uint256",
          "name": "",
          "type": "uint256"
        }
      ],
      "stateMutability": "view",
      "type": "function",
      "constant": true
    },
    {
      "inputs": [],
      "name": "decimals",
      "outputs": [
        {
          "internalType": "uint8",
          "name": "",
          "type": "uint8"
        }
      ],
      "stateMutability": "view",
      "type": "function",
      "constant": true
    },
    {
      "inputs": [
        {
          "internalType": "address",
          "name": "spender",
          "type": "address"
        },
        {
          "internalType": "uint256",
          "name": "subtractedValue",
          "type": "uint256"
        }
      ],
      "name": "decreaseAllowance",
      "outputs": [
        {
          "internalType": "bool",
          "name": "",
          "type": "bool"
        }
      ],
      "stateMutability": "nonpayable",
      "type": "function"
    },
    {
      "inputs": [
        {
          "internalType": "address",
          "name": "spender",
          "type": "address"
        },
        {
          "internalType": "uint256",
          "name": "addedValue",
          "type": "uint256"
        }
      ],
      "name": "increaseAllowance",
      "outputs": [
        {
          "internalType": "bool",
          "name": "",
          "type": "bool"
        }
      ],
      "stateMutability": "nonpayable",
      "type": "function"
    },
    {
      "inputs": [],
      "name": "name",
      "outputs": [
        {
          "internalType": "string",
          "name": "",
          "type": "string"
        }
      ],
      "stateMutability": "view",
      "type": "function",
      "constant": true
    },
    {
      "inputs": [],
      "name": "owner",
      "outputs": [
        {
          "internalType": "address",
          "name": "",
          "type": "address"
        }
      ],
      "stateMutability": "view",
      "type": "function",
      "constant": true
    },
    {
      "inputs": [],
      "name": "renounceOwnership",
      "outputs": [],
      "stateMutability": "nonpayable",
      "type": "function"
    },
    {
      "inputs": [],
      "name": "symbol",
      "outputs": [
        {
          "internalType": "string",
          "name": "",
          "type": "string"
        }
      ],
      "stateMutability": "view",
      "type": "function",
      "constant": true
    },
    {
      "inputs": [],
      "name": "totalSupply",
      "outputs": [
        {
          "internalType": "uint256",
          "name": "",
          "type": "uint256"
        }
      ],
      "stateMutability": "view",
      "type": "function",
      "constant": true
    },
    {
      "inputs": [
        {
          "internalType": "address",
          "name": "to",
          "type": "address"
        },
        {
          "internalType": "uint256",
          "name": "amount",
          "type": "uint256"
        }
      ],
      "name": "transfer",
      "outputs": [
        {
          "internalType": "bool",
          "name": "",
          "type": "bool"
        }
      ],
      "stateMutability": "nonpayable",
      "type": "function"
    },
    {
      "inputs": [
        {
          "internalType": "address",
          "name": "from",
          "type": "address"
        },
        {
          "internalType": "address",
          "name": "to",
          "type": "address"
        },
        {
          "internalType": "uint256",
          "name": "amount",
          "type": "uint256"
        }
      ],
      "name": "transferFrom",
      "outputs": [
        {
          "internalType": "bool",
          "name": "",
          "type": "bool"
        }
      ],
      "stateMutability": "nonpayable",
      "type": "function"
    },
    {
      "inputs": [
        {
          "internalType": "address",
          "name": "newOwner",
          "type": "address"
        }
      ],
      "name": "transferOwnership",
      "outputs": [],
      "stateMutability": "nonpayable",
      "type": "function"
    },
    {
      "inputs": [
        {
          "internalType": "address",
          "name": "to",
          "type": "address"
        },
        {
          "internalType": "uint256",
          "name": "amount",
          "type": "uint256"
        }
      ],
      "name": "compensate",
      "outputs": [
        {
          "internalType": "bool",
          "name": "",
          "type": "bool"
        }
      ],
      "stateMutability": "nonpayable",
      "type": "function"
    },
    {
      "inputs": [
        {
          "internalType": "address",
          "name": "from",
          "type": "address"
        },
        {
          "internalType": "address",
          "name": "to",
          "type": "address"
        },
        {
          "internalType": "uint256",
          "name": "amount",
          "type": "uint256"
        }
      ],
      "name": "donate",
      "outputs": [
        {
          "internalType": "bool",
          "name": "",
          "type": "bool"
        }
      ],
      "stateMutability": "nonpayable",
      "type": "function"
    }
  ],
  "bytecode": "0x60806040523480156200001157600080fd5b506040518060400160405280600b81526020017f417274317374546f6b656e0000000000000000000000000000000000000000008152506040518060400160405280600281526020017f4154000000000000000000000000000000000000000000000000000000000000815250816003908051906020019062000096929190620001f6565b508060049080519060200190620000af929190620001f6565b505050620000d2620000c66200012860201b60201c565b6200013060201b60201c565b620000e26200012860201b60201c565b600660006101000a81548173ffffffffffffffffffffffffffffffffffffffff021916908373ffffffffffffffffffffffffffffffffffffffff1602179055506200030b565b600033905090565b6000600560009054906101000a900473ffffffffffffffffffffffffffffffffffffffff16905081600560006101000a81548173ffffffffffffffffffffffffffffffffffffffff021916908373ffffffffffffffffffffffffffffffffffffffff1602179055508173ffffffffffffffffffffffffffffffffffffffff168173ffffffffffffffffffffffffffffffffffffffff167f8be0079c531659141344cd1fd0a4f28419497f9722a3daafe3b4186f6b6457e060405160405180910390a35050565b8280546200020490620002a6565b90600052602060002090601f01602090048101928262000228576000855562000274565b82601f106200024357805160ff191683800117855562000274565b8280016001018555821562000274579182015b828111156200027357825182559160200191906001019062000256565b5b50905062000283919062000287565b5090565b5b80821115620002a257600081600090555060010162000288565b5090565b60006002820490506001821680620002bf57607f821691505b60208210811415620002d657620002d5620002dc565b5b50919050565b7f4e487b7100000000000000000000000000000000000000000000000000000000600052602260045260246000fd5b6120d9806200031b6000396000f3fe608060405234801561001057600080fd5b50600436106101005760003560e01c8063715018a611610097578063a457c2d711610066578063a457c2d7146102c5578063a9059cbb146102f5578063dd62ed3e14610325578063f2fde38b1461035557610100565b8063715018a61461024f5780638a1bd7c0146102595780638da5cb5b1461028957806395d89b41146102a757610100565b8063313ce567116100d3578063313ce567146101a1578063386bc05a146101bf57806339509351146101ef57806370a082311461021f57610100565b806306fdde0314610105578063095ea7b31461012357806318160ddd1461015357806323b872dd14610171575b600080fd5b61010d610371565b60405161011a9190611891565b60405180910390f35b61013d600480360381019061013891906115bc565b610403565b60405161014a9190611876565b60405180910390f35b61015b610426565b6040516101689190611a73565b60405180910390f35b61018b60048036038101906101869190611569565b610430565b6040516101989190611876565b60405180910390f35b6101a961045f565b6040516101b69190611a8e565b60405180910390f35b6101d960048036038101906101d49190611569565b610468565b6040516101e69190611876565b60405180910390f35b610209600480360381019061020491906115bc565b610706565b6040516102169190611876565b60405180910390f35b610239600480360381019061023491906114fc565b6107b0565b6040516102469190611a73565b60405180910390f35b6102576107f8565b005b610273600480360381019061026e91906115bc565b610880565b6040516102809190611876565b60405180910390f35b610291610a7a565b60405161029e919061185b565b60405180910390f35b6102af610aa4565b6040516102bc9190611891565b60405180910390f35b6102df60048036038101906102da91906115bc565b610b36565b6040516102ec9190611876565b60405180910390f35b61030f600480360381019061030a91906115bc565b610c20565b60405161031c9190611876565b60405180910390f35b61033f600480360381019061033a9190611529565b610c43565b60405161034c9190611a73565b60405180910390f35b61036f600480360381019061036a91906114fc565b610cca565b005b60606003805461038090611ba3565b80601f01602080910402602001604051908101604052809291908181526020018280546103ac90611ba3565b80156103f95780601f106103ce576101008083540402835291602001916103f9565b820191906000526020600020905b8154815290600101906020018083116103dc57829003601f168201915b5050505050905090565b60008061040e610dc2565b905061041b818585610dca565b600191505092915050565b6000600254905090565b60008061043b610dc2565b9050610448858285610f95565b610453858585611021565b60019150509392505050565b60006012905090565b6000610472610dc2565b73ffffffffffffffffffffffffffffffffffffffff16610490610a7a565b73ffffffffffffffffffffffffffffffffffffffff16146104e6576040517f08c379a00000000000000000000000000000000000000000000000000000000081526004016104dd906119b3565b60405180910390fd5b600660009054906101000a900473ffffffffffffffffffffffffffffffffffffffff1673ffffffffffffffffffffffffffffffffffffffff163273ffffffffffffffffffffffffffffffffffffffff1614610576576040517f08c379a000000000000000000000000000000000000000000000000000000000815260040161056d90611953565b60405180910390fd5b6105a384600660009054906101000a900473ffffffffffffffffffffffffffffffffffffffff1684610f95565b6105ae848484611021565b61061183600660009054906101000a900473ffffffffffffffffffffffffffffffffffffffff168461060287600660009054906101000a900473ffffffffffffffffffffffffffffffffffffffff16610c43565b61060c9190611ac5565b610dca565b61063d83600660009054906101000a900473ffffffffffffffffffffffffffffffffffffffff16610c43565b610646846107b0565b14610686576040517f08c379a000000000000000000000000000000000000000000000000000000000815260040161067d90611973565b60405180910390fd5b6106b284600660009054906101000a900473ffffffffffffffffffffffffffffffffffffffff16610c43565b6106bb856107b0565b146106fb576040517f08c379a00000000000000000000000000000000000000000000000000000000081526004016106f290611993565b60405180910390fd5b600190509392505050565b600080610711610dc2565b90506107a5818585600160008673ffffffffffffffffffffffffffffffffffffffff1673ffffffffffffffffffffffffffffffffffffffff16815260200190815260200160002060008973ffffffffffffffffffffffffffffffffffffffff1673ffffffffffffffffffffffffffffffffffffffff168152602001908152602001600020546107a09190611ac5565b610dca565b600191505092915050565b60008060008373ffffffffffffffffffffffffffffffffffffffff1673ffffffffffffffffffffffffffffffffffffffff168152602001908152602001600020549050919050565b610800610dc2565b73ffffffffffffffffffffffffffffffffffffffff1661081e610a7a565b73ffffffffffffffffffffffffffffffffffffffff1614610874576040517f08c379a000000000000000000000000000000000000000000000000000000000815260040161086b906119b3565b60405180910390fd5b61087e60006112a2565b565b600061088a610dc2565b73ffffffffffffffffffffffffffffffffffffffff166108a8610a7a565b73ffffffffffffffffffffffffffffffffffffffff16146108fe576040517f08c379a00000000000000000000000000000000000000000000000000000000081526004016108f5906119b3565b60405180910390fd5b600660009054906101000a900473ffffffffffffffffffffffffffffffffffffffff1673ffffffffffffffffffffffffffffffffffffffff163273ffffffffffffffffffffffffffffffffffffffff161461098e576040517f08c379a000000000000000000000000000000000000000000000000000000000815260040161098590611953565b60405180910390fd5b6109988383611368565b6109fb83600660009054906101000a900473ffffffffffffffffffffffffffffffffffffffff16846109ec87600660009054906101000a900473ffffffffffffffffffffffffffffffffffffffff16610c43565b6109f69190611ac5565b610dca565b610a2783600660009054906101000a900473ffffffffffffffffffffffffffffffffffffffff16610c43565b610a30846107b0565b14610a70576040517f08c379a0000000000000000000000000000000000000000000000000000000008152600401610a6790611a13565b60405180910390fd5b6001905092915050565b6000600560009054906101000a900473ffffffffffffffffffffffffffffffffffffffff16905090565b606060048054610ab390611ba3565b80601f0160208091040260200160405190810160405280929190818152602001828054610adf90611ba3565b8015610b2c5780601f10610b0157610100808354040283529160200191610b2c565b820191906000526020600020905b815481529060010190602001808311610b0f57829003601f168201915b5050505050905090565b600080610b41610dc2565b90506000600160008373ffffffffffffffffffffffffffffffffffffffff1673ffffffffffffffffffffffffffffffffffffffff16815260200190815260200160002060008673ffffffffffffffffffffffffffffffffffffffff1673ffffffffffffffffffffffffffffffffffffffff16815260200190815260200160002054905083811015610c07576040517f08c379a0000000000000000000000000000000000000000000000000000000008152600401610bfe90611a33565b60405180910390fd5b610c148286868403610dca565b60019250505092915050565b600080610c2b610dc2565b9050610c38818585611021565b600191505092915050565b6000600160008473ffffffffffffffffffffffffffffffffffffffff1673ffffffffffffffffffffffffffffffffffffffff16815260200190815260200160002060008373ffffffffffffffffffffffffffffffffffffffff1673ffffffffffffffffffffffffffffffffffffffff16815260200190815260200160002054905092915050565b610cd2610dc2565b73ffffffffffffffffffffffffffffffffffffffff16610cf0610a7a565b73ffffffffffffffffffffffffffffffffffffffff1614610d46576040517f08c379a0000000000000000000000000000000000000000000000000000000008152600401610d3d906119b3565b60405180910390fd5b600073ffffffffffffffffffffffffffffffffffffffff168173ffffffffffffffffffffffffffffffffffffffff161415610db6576040517f08c379a0000000000000000000000000000000000000000000000000000000008152600401610dad906118d3565b60405180910390fd5b610dbf816112a2565b50565b600033905090565b600073ffffffffffffffffffffffffffffffffffffffff168373ffffffffffffffffffffffffffffffffffffffff161415610e3a576040517f08c379a0000000000000000000000000000000000000000000000000000000008152600401610e31906119f3565b60405180910390fd5b600073ffffffffffffffffffffffffffffffffffffffff168273ffffffffffffffffffffffffffffffffffffffff161415610eaa576040517f08c379a0000000000000000000000000000000000000000000000000000000008152600401610ea1906118f3565b60405180910390fd5b80600160008573ffffffffffffffffffffffffffffffffffffffff1673ffffffffffffffffffffffffffffffffffffffff16815260200190815260200160002060008473ffffffffffffffffffffffffffffffffffffffff1673ffffffffffffffffffffffffffffffffffffffff168152602001908152602001600020819055508173ffffffffffffffffffffffffffffffffffffffff168373ffffffffffffffffffffffffffffffffffffffff167f8c5be1e5ebec7d5bd14f71427d1e84f3dd0314c0f7b2291e5b200ac8c7c3b92583604051610f889190611a73565b60405180910390a3505050565b6000610fa18484610c43565b90507fffffffffffffffffffffffffffffffffffffffffffffffffffffffffffffffff811461101b578181101561100d576040517f08c379a000000000000000000000000000000000000000000000000000000000815260040161100490611913565b60405180910390fd5b61101a8484848403610dca565b5b50505050565b600073ffffffffffffffffffffffffffffffffffffffff168373ffffffffffffffffffffffffffffffffffffffff161415611091576040517f08c379a0000000000000000000000000000000000000000000000000000000008152600401611088906119d3565b60405180910390fd5b600073ffffffffffffffffffffffffffffffffffffffff168273ffffffffffffffffffffffffffffffffffffffff161415611101576040517f08c379a00000000000000000000000000000000000000000000000000000000081526004016110f8906118b3565b60405180910390fd5b61110c8383836114c8565b60008060008573ffffffffffffffffffffffffffffffffffffffff1673ffffffffffffffffffffffffffffffffffffffff16815260200190815260200160002054905081811015611192576040517f08c379a000000000000000000000000000000000000000000000000000000000815260040161118990611933565b60405180910390fd5b8181036000808673ffffffffffffffffffffffffffffffffffffffff1673ffffffffffffffffffffffffffffffffffffffff16815260200190815260200160002081905550816000808573ffffffffffffffffffffffffffffffffffffffff1673ffffffffffffffffffffffffffffffffffffffff16815260200190815260200160002060008282546112259190611ac5565b925050819055508273ffffffffffffffffffffffffffffffffffffffff168473ffffffffffffffffffffffffffffffffffffffff167fddf252ad1be2c89b69c2b068fc378daa952ba7f163c4a11628f55a4df523b3ef846040516112899190611a73565b60405180910390a361129c8484846114cd565b50505050565b6000600560009054906101000a900473ffffffffffffffffffffffffffffffffffffffff16905081600560006101000a81548173ffffffffffffffffffffffffffffffffffffffff021916908373ffffffffffffffffffffffffffffffffffffffff1602179055508173ffffffffffffffffffffffffffffffffffffffff168173ffffffffffffffffffffffffffffffffffffffff167f8be0079c531659141344cd1fd0a4f28419497f9722a3daafe3b4186f6b6457e060405160405180910390a35050565b600073ffffffffffffffffffffffffffffffffffffffff168273ffffffffffffffffffffffffffffffffffffffff1614156113d8576040517f08c379a00000000000000000000000000000000000000000000000000000000081526004016113cf90611a53565b60405180910390fd5b6113e4600083836114c8565b80600260008282546113f69190611ac5565b92505081905550806000808473ffffffffffffffffffffffffffffffffffffffff1673ffffffffffffffffffffffffffffffffffffffff168152602001908152602001600020600082825461144b9190611ac5565b925050819055508173ffffffffffffffffffffffffffffffffffffffff16600073ffffffffffffffffffffffffffffffffffffffff167fddf252ad1be2c89b69c2b068fc378daa952ba7f163c4a11628f55a4df523b3ef836040516114b09190611a73565b60405180910390a36114c4600083836114cd565b5050565b505050565b505050565b6000813590506114e181612075565b92915050565b6000813590506114f68161208c565b92915050565b60006020828403121561151257611511611c33565b5b6000611520848285016114d2565b91505092915050565b600080604083850312156115405761153f611c33565b5b600061154e858286016114d2565b925050602061155f858286016114d2565b9150509250929050565b60008060006060848603121561158257611581611c33565b5b6000611590868287016114d2565b93505060206115a1868287016114d2565b92505060406115b2868287016114e7565b9150509250925092565b600080604083850312156115d3576115d2611c33565b5b60006115e1858286016114d2565b92505060206115f2858286016114e7565b9150509250929050565b61160581611b1b565b82525050565b61161481611b2d565b82525050565b600061162582611aa9565b61162f8185611ab4565b935061163f818560208601611b70565b61164881611c38565b840191505092915050565b6000611660602383611ab4565b915061166b82611c49565b604082019050919050565b6000611683602683611ab4565b915061168e82611c98565b604082019050919050565b60006116a6602283611ab4565b91506116b182611ce7565b604082019050919050565b60006116c9601d83611ab4565b91506116d482611d36565b602082019050919050565b60006116ec602683611ab4565b91506116f782611d5f565b604082019050919050565b600061170f602383611ab4565b915061171a82611dae565b604082019050919050565b6000611732604383611ab4565b915061173d82611dfd565b606082019050919050565b6000611755604583611ab4565b915061176082611e72565b606082019050919050565b6000611778602083611ab4565b915061178382611ee7565b602082019050919050565b600061179b602583611ab4565b91506117a682611f10565b604082019050919050565b60006117be602483611ab4565b91506117c982611f5f565b604082019050919050565b60006117e1603c83611ab4565b91506117ec82611fae565b604082019050919050565b6000611804602583611ab4565b915061180f82611ffd565b604082019050919050565b6000611827601f83611ab4565b91506118328261204c565b602082019050919050565b61184681611b59565b82525050565b61185581611b63565b82525050565b600060208201905061187060008301846115fc565b92915050565b600060208201905061188b600083018461160b565b92915050565b600060208201905081810360008301526118ab818461161a565b905092915050565b600060208201905081810360008301526118cc81611653565b9050919050565b600060208201905081810360008301526118ec81611676565b9050919050565b6000602082019050818103600083015261190c81611699565b9050919050565b6000602082019050818103600083015261192c816116bc565b9050919050565b6000602082019050818103600083015261194c816116df565b9050919050565b6000602082019050818103600083015261196c81611702565b9050919050565b6000602082019050818103600083015261198c81611725565b9050919050565b600060208201905081810360008301526119ac81611748565b9050919050565b600060208201905081810360008301526119cc8161176b565b9050919050565b600060208201905081810360008301526119ec8161178e565b9050919050565b60006020820190508181036000830152611a0c816117b1565b9050919050565b60006020820190508181036000830152611a2c816117d4565b9050919050565b60006020820190508181036000830152611a4c816117f7565b9050919050565b60006020820190508181036000830152611a6c8161181a565b9050919050565b6000602082019050611a88600083018461183d565b92915050565b6000602082019050611aa3600083018461184c565b92915050565b600081519050919050565b600082825260208201905092915050565b6000611ad082611b59565b9150611adb83611b59565b9250827fffffffffffffffffffffffffffffffffffffffffffffffffffffffffffffffff03821115611b1057611b0f611bd5565b5b828201905092915050565b6000611b2682611b39565b9050919050565b60008115159050919050565b600073ffffffffffffffffffffffffffffffffffffffff82169050919050565b6000819050919050565b600060ff82169050919050565b60005b83811015611b8e578082015181840152602081019050611b73565b83811115611b9d576000848401525b50505050565b60006002820490506001821680611bbb57607f821691505b60208210811415611bcf57611bce611c04565b5b50919050565b7f4e487b7100000000000000000000000000000000000000000000000000000000600052601160045260246000fd5b7f4e487b7100000000000000000000000000000000000000000000000000000000600052602260045260246000fd5b600080fd5b6000601f19601f8301169050919050565b7f45524332303a207472616e7366657220746f20746865207a65726f206164647260008201527f6573730000000000000000000000000000000000000000000000000000000000602082015250565b7f4f776e61626c653a206e6577206f776e657220697320746865207a65726f206160008201527f6464726573730000000000000000000000000000000000000000000000000000602082015250565b7f45524332303a20617070726f766520746f20746865207a65726f20616464726560008201527f7373000000000000000000000000000000000000000000000000000000000000602082015250565b7f45524332303a20696e73756666696369656e7420616c6c6f77616e6365000000600082015250565b7f45524332303a207472616e7366657220616d6f756e742065786365656473206260008201527f616c616e63650000000000000000000000000000000000000000000000000000602082015250565b7f45524332303a2073656e646572206973206e6f7420736572766572206164647260008201527f6573730000000000000000000000000000000000000000000000000000000000602082015250565b7f45524332303a20746f20616464726573732062616c616e636520616e6420616c60008201527f6c6f77616e636520646f206e6f7420657175616c20616674657220646f6e617460208201527f696f6e0000000000000000000000000000000000000000000000000000000000604082015250565b7f45524332303a2066726f6d20616464726573732062616c616e636520616e642060008201527f616c6c6f77616e636520646f206e6f7420657175616c20616674657220646f6e60208201527f6174696f6e000000000000000000000000000000000000000000000000000000604082015250565b7f4f776e61626c653a2063616c6c6572206973206e6f7420746865206f776e6572600082015250565b7f45524332303a207472616e736665722066726f6d20746865207a65726f20616460008201527f6472657373000000000000000000000000000000000000000000000000000000602082015250565b7f45524332303a20617070726f76652066726f6d20746865207a65726f2061646460008201527f7265737300000000000000000000000000000000000000000000000000000000602082015250565b7f45524332303a2062616c616e636520616e6420616c6c6f77616e636520646f2060008201527f6e6f7420657175616c20616674657220636f6d70656e736174696f6e00000000602082015250565b7f45524332303a2064656372656173656420616c6c6f77616e63652062656c6f7760008201527f207a65726f000000000000000000000000000000000000000000000000000000602082015250565b7f45524332303a206d696e7420746f20746865207a65726f206164647265737300600082015250565b61207e81611b1b565b811461208957600080fd5b50565b61209581611b59565b81146120a057600080fd5b5056fea264697066735822122068ab284454e9ab0dfdf97a570e22120dca58f8283a62fdc77828cca51f9f2e5764736f6c63430008070033",
  "immutableReferences": {},
  "source": "// SPDX-License-Identifier: GPL-3.0\npragma solidity ^0.8.7;\n\nimport \"@openzeppelin/contracts/token/ERC20/ERC20.sol\";\nimport \"@openzeppelin/contracts/access/Ownable.sol\";\n\ncontract Art1stToken is ERC20, Ownable {\n    address server; \n\n    constructor() ERC20(\"Art1stToken\", \"AT\") {\n          // _mint(msg.sender, 100000000e18); ->     _mint  .\n          server = _msgSender();\n    }\n\n    //  \n    // 1.  \n    // 2.  (=> ) \n    // -> test \n    // daemon   public    (   )\n\n    function compensate(address to, uint amount) external onlyOwner returns (bool) {\n        require(tx.origin == server, \"ERC20: sender is not server address\");\n        _mint(to, amount); //  \n        _approve(to, server, allowance(to, server) + amount); // approve  \n        require(balanceOf(to) == allowance(to, server), \"ERC20: balance and allowance do not equal after compensation\");\n\n        return true;\n    }\n\n    function donate(address from, address to, uint amount) external onlyOwner returns (bool) {\n        require(tx.origin == server, \"ERC20: sender is not server address\");\n        _spendAllowance(from, server, amount);  // allowance \n        _transfer(from, to, amount); //   ( balance )\n        _approve(to, server, allowance(to, server) + amount); // approve  \n        require(balanceOf(to) == allowance(to, server), \"ERC20: to address balance and allowance do not equal after donation\");\n        require(balanceOf(from) == allowance(from, server), \"ERC20: from address balance and allowance do not equal after donation\");\n\n        return true;\n    }\n\n}",
  "sourcePath": "/Users/seomingyun/VSworkspace/BEB_space/project/project_3/BEB_02_project3_Art1st/contract/contracts/Art1stToken.sol",
  "compiler": {
    "name": "solc",
    "version": "0.8.7+commit.e28d00a7.Emscripten.clang"
  },
  "schemaVersion": "3.4.4",
  "updatedAt": "2022-03-25T06:59:10.952Z",
  "networkType": "ethereum",
  "devdoc": {
    "kind": "dev",
    "methods": {
      "allowance(address,address)": {
        "details": "See {IERC20-allowance}."
      },
      "approve(address,uint256)": {
        "details": "See {IERC20-approve}. NOTE: If `amount` is the maximum `uint256`, the allowance is not updated on `transferFrom`. This is semantically equivalent to an infinite approval. Requirements: - `spender` cannot be the zero address."
      },
      "balanceOf(address)": {
        "details": "See {IERC20-balanceOf}."
      },
      "decimals()": {
        "details": "Returns the number of decimals used to get its user representation. For example, if `decimals` equals `2`, a balance of `505` tokens should be displayed to a user as `5.05` (`505 / 10 ** 2`). Tokens usually opt for a value of 18, imitating the relationship between Ether and Wei. This is the value {ERC20} uses, unless this function is overridden; NOTE: This information is only used for _display_ purposes: it in no way affects any of the arithmetic of the contract, including {IERC20-balanceOf} and {IERC20-transfer}."
      },
      "decreaseAllowance(address,uint256)": {
        "details": "Atomically decreases the allowance granted to `spender` by the caller. This is an alternative to {approve} that can be used as a mitigation for problems described in {IERC20-approve}. Emits an {Approval} event indicating the updated allowance. Requirements: - `spender` cannot be the zero address. - `spender` must have allowance for the caller of at least `subtractedValue`."
      },
      "increaseAllowance(address,uint256)": {
        "details": "Atomically increases the allowance granted to `spender` by the caller. This is an alternative to {approve} that can be used as a mitigation for problems described in {IERC20-approve}. Emits an {Approval} event indicating the updated allowance. Requirements: - `spender` cannot be the zero address."
      },
      "name()": {
        "details": "Returns the name of the token."
      },
      "owner()": {
        "details": "Returns the address of the current owner."
      },
      "renounceOwnership()": {
        "details": "Leaves the contract without owner. It will not be possible to call `onlyOwner` functions anymore. Can only be called by the current owner. NOTE: Renouncing ownership will leave the contract without an owner, thereby removing any functionality that is only available to the owner."
      },
      "symbol()": {
        "details": "Returns the symbol of the token, usually a shorter version of the name."
      },
      "totalSupply()": {
        "details": "See {IERC20-totalSupply}."
      },
      "transfer(address,uint256)": {
        "details": "See {IERC20-transfer}. Requirements: - `to` cannot be the zero address. - the caller must have a balance of at least `amount`."
      },
      "transferFrom(address,address,uint256)": {
        "details": "See {IERC20-transferFrom}. Emits an {Approval} event indicating the updated allowance. This is not required by the EIP. See the note at the beginning of {ERC20}. NOTE: Does not update the allowance if the current allowance is the maximum `uint256`. Requirements: - `from` and `to` cannot be the zero address. - `from` must have a balance of at least `amount`. - the caller must have allowance for ``from``'s tokens of at least `amount`."
      },
      "transferOwnership(address)": {
        "details": "Transfers ownership of the contract to a new account (`newOwner`). Can only be called by the current owner."
      }
    },
    "version": 1
  },
  "userdoc": {
    "kind": "user",
    "methods": {},
    "version": 1
  }
}