{
  "contractName": "art1st",
  "abi": [
    {
      "inputs": [],
      "stateMutability": "nonpayable",
      "type": "constructor"
    },
    {
      "anonymous": false,
      "inputs": [
        {
          "indexed": true,
          "internalType": "address",
          "name": "owner",
          "type": "address"
        },
        {
          "indexed": true,
          "internalType": "address",
          "name": "approved",
          "type": "address"
        },
        {
          "indexed": true,
          "internalType": "uint256",
          "name": "tokenId",
          "type": "uint256"
        }
      ],
      "name": "Approval",
      "type": "event"
    },
    {
      "anonymous": false,
      "inputs": [
        {
          "indexed": true,
          "internalType": "address",
          "name": "owner",
          "type": "address"
        },
        {
          "indexed": true,
          "internalType": "address",
          "name": "operator",
          "type": "address"
        },
        {
          "indexed": false,
          "internalType": "bool",
          "name": "approved",
          "type": "bool"
        }
      ],
      "name": "ApprovalForAll",
      "type": "event"
    },
    {
      "anonymous": false,
      "inputs": [
        {
          "indexed": true,
          "internalType": "address",
          "name": "previousOwner",
          "type": "address"
        },
        {
          "indexed": true,
          "internalType": "address",
          "name": "newOwner",
          "type": "address"
        }
      ],
      "name": "OwnershipTransferred",
      "type": "event"
    },
    {
      "anonymous": false,
      "inputs": [
        {
          "indexed": true,
          "internalType": "address",
          "name": "from",
          "type": "address"
        },
        {
          "indexed": true,
          "internalType": "address",
          "name": "to",
          "type": "address"
        },
        {
          "indexed": true,
          "internalType": "uint256",
          "name": "tokenId",
          "type": "uint256"
        }
      ],
      "name": "Transfer",
      "type": "event"
    },
    {
      "inputs": [
        {
          "internalType": "address",
          "name": "to",
          "type": "address"
        },
        {
          "internalType": "uint256",
          "name": "tokenId",
          "type": "uint256"
        }
      ],
      "name": "approve",
      "outputs": [],
      "stateMutability": "nonpayable",
      "type": "function"
    },
    {
      "inputs": [
        {
          "internalType": "address",
          "name": "owner",
          "type": "address"
        }
      ],
      "name": "balanceOf",
      "outputs": [
        {
          "internalType": "uint256",
          "name": "",
          "type": "uint256"
        }
      ],
      "stateMutability": "view",
      "type": "function"
    },
    {
      "inputs": [
        {
          "internalType": "uint256",
          "name": "tokenId",
          "type": "uint256"
        }
      ],
      "name": "getApproved",
      "outputs": [
        {
          "internalType": "address",
          "name": "",
          "type": "address"
        }
      ],
      "stateMutability": "view",
      "type": "function"
    },
    {
      "inputs": [
        {
          "internalType": "address",
          "name": "owner",
          "type": "address"
        },
        {
          "internalType": "address",
          "name": "operator",
          "type": "address"
        }
      ],
      "name": "isApprovedForAll",
      "outputs": [
        {
          "internalType": "bool",
          "name": "",
          "type": "bool"
        }
      ],
      "stateMutability": "view",
      "type": "function"
    },
    {
      "inputs": [],
      "name": "name",
      "outputs": [
        {
          "internalType": "string",
          "name": "",
          "type": "string"
        }
      ],
      "stateMutability": "view",
      "type": "function"
    },
    {
      "inputs": [],
      "name": "owner",
      "outputs": [
        {
          "internalType": "address",
          "name": "",
          "type": "address"
        }
      ],
      "stateMutability": "view",
      "type": "function"
    },
    {
      "inputs": [
        {
          "internalType": "uint256",
          "name": "tokenId",
          "type": "uint256"
        }
      ],
      "name": "ownerOf",
      "outputs": [
        {
          "internalType": "address",
          "name": "",
          "type": "address"
        }
      ],
      "stateMutability": "view",
      "type": "function"
    },
    {
      "inputs": [],
      "name": "renounceOwnership",
      "outputs": [],
      "stateMutability": "nonpayable",
      "type": "function"
    },
    {
      "inputs": [
        {
          "internalType": "address",
          "name": "from",
          "type": "address"
        },
        {
          "internalType": "address",
          "name": "to",
          "type": "address"
        },
        {
          "internalType": "uint256",
          "name": "tokenId",
          "type": "uint256"
        }
      ],
      "name": "safeTransferFrom",
      "outputs": [],
      "stateMutability": "nonpayable",
      "type": "function"
    },
    {
      "inputs": [
        {
          "internalType": "address",
          "name": "from",
          "type": "address"
        },
        {
          "internalType": "address",
          "name": "to",
          "type": "address"
        },
        {
          "internalType": "uint256",
          "name": "tokenId",
          "type": "uint256"
        },
        {
          "internalType": "bytes",
          "name": "_data",
          "type": "bytes"
        }
      ],
      "name": "safeTransferFrom",
      "outputs": [],
      "stateMutability": "nonpayable",
      "type": "function"
    },
    {
      "inputs": [
        {
          "internalType": "address",
          "name": "operator",
          "type": "address"
        },
        {
          "internalType": "bool",
          "name": "approved",
          "type": "bool"
        }
      ],
      "name": "setApprovalForAll",
      "outputs": [],
      "stateMutability": "nonpayable",
      "type": "function"
    },
    {
      "inputs": [],
      "name": "symbol",
      "outputs": [
        {
          "internalType": "string",
          "name": "",
          "type": "string"
        }
      ],
      "stateMutability": "view",
      "type": "function"
    },
    {
      "inputs": [
        {
          "internalType": "uint256",
          "name": "index",
          "type": "uint256"
        }
      ],
      "name": "tokenByIndex",
      "outputs": [
        {
          "internalType": "uint256",
          "name": "",
          "type": "uint256"
        }
      ],
      "stateMutability": "view",
      "type": "function"
    },
    {
      "inputs": [
        {
          "internalType": "address",
          "name": "owner",
          "type": "address"
        },
        {
          "internalType": "uint256",
          "name": "index",
          "type": "uint256"
        }
      ],
      "name": "tokenOfOwnerByIndex",
      "outputs": [
        {
          "internalType": "uint256",
          "name": "",
          "type": "uint256"
        }
      ],
      "stateMutability": "view",
      "type": "function"
    },
    {
      "inputs": [],
      "name": "totalSupply",
      "outputs": [
        {
          "internalType": "uint256",
          "name": "",
          "type": "uint256"
        }
      ],
      "stateMutability": "view",
      "type": "function"
    },
    {
      "inputs": [
        {
          "internalType": "address",
          "name": "from",
          "type": "address"
        },
        {
          "internalType": "address",
          "name": "to",
          "type": "address"
        },
        {
          "internalType": "uint256",
          "name": "tokenId",
          "type": "uint256"
        }
      ],
      "name": "transferFrom",
      "outputs": [],
      "stateMutability": "nonpayable",
      "type": "function"
    },
    {
      "inputs": [
        {
          "internalType": "address",
          "name": "newOwner",
          "type": "address"
        }
      ],
      "name": "transferOwnership",
      "outputs": [],
      "stateMutability": "nonpayable",
      "type": "function"
    },
    {
      "inputs": [
        {
          "internalType": "bytes4",
          "name": "interfaceId",
          "type": "bytes4"
        }
      ],
      "name": "supportsInterface",
      "outputs": [
        {
          "internalType": "bool",
          "name": "",
          "type": "bool"
        }
      ],
      "stateMutability": "view",
      "type": "function"
    },
    {
      "inputs": [
        {
          "internalType": "uint256",
          "name": "tokenId",
          "type": "uint256"
        }
      ],
      "name": "tokenURI",
      "outputs": [
        {
          "internalType": "string",
          "name": "",
          "type": "string"
        }
      ],
      "stateMutability": "view",
      "type": "function"
    },
    {
      "inputs": [],
      "name": "getTokenId",
      "outputs": [
        {
          "internalType": "uint256",
          "name": "",
          "type": "uint256"
        }
      ],
      "stateMutability": "nonpayable",
      "type": "function"
    },
    {
      "inputs": [
        {
          "internalType": "address",
          "name": "recipient",
          "type": "address"
        },
        {
          "internalType": "string",
          "name": "_tokenURI",
          "type": "string"
        }
      ],
      "name": "mintNFT",
      "outputs": [
        {
          "internalType": "uint256",
          "name": "",
          "type": "uint256"
        }
      ],
      "stateMutability": "nonpayable",
      "type": "function"
    }
  ],
  "bytecode": "0x60806040523480156200001157600080fd5b506040518060400160405280600681526020017f61727431737400000000000000000000000000000000000000000000000000008152506040518060400160405280600381526020017f4152540000000000000000000000000000000000000000000000000000000000815250816000908051906020019062000096929190620001a6565b508060019080519060200190620000af929190620001a6565b505050620000d2620000c6620000d860201b60201c565b620000e060201b60201c565b620002bb565b600033905090565b6000600760009054906101000a900473ffffffffffffffffffffffffffffffffffffffff16905081600760006101000a81548173ffffffffffffffffffffffffffffffffffffffff021916908373ffffffffffffffffffffffffffffffffffffffff1602179055508173ffffffffffffffffffffffffffffffffffffffff168173ffffffffffffffffffffffffffffffffffffffff167f8be0079c531659141344cd1fd0a4f28419497f9722a3daafe3b4186f6b6457e060405160405180910390a35050565b828054620001b49062000256565b90600052602060002090601f016020900481019282620001d8576000855562000224565b82601f10620001f357805160ff191683800117855562000224565b8280016001018555821562000224579182015b828111156200022357825182559160200191906001019062000206565b5b50905062000233919062000237565b5090565b5b808211156200025257600081600090555060010162000238565b5090565b600060028204905060018216806200026f57607f821691505b602082108114156200028657620002856200028c565b5b50919050565b7f4e487b7100000000000000000000000000000000000000000000000000000000600052602260045260246000fd5b61383780620002cb6000396000f3fe608060405234801561001057600080fd5b50600436106101375760003560e01c80636352211e116100b8578063a22cb4651161007c578063a22cb46514610350578063b88d4fde1461036c578063c87b56dd14610388578063e985e9c5146103b8578063eacabe14146103e8578063f2fde38b1461041857610137565b80636352211e146102aa57806370a08231146102da578063715018a61461030a5780638da5cb5b1461031457806395d89b411461033257610137565b806318160ddd116100ff57806318160ddd146101f457806323b872dd146102125780632f745c591461022e57806342842e0e1461025e5780634f6ccce71461027a57610137565b8063010a38f51461013c57806301ffc9a71461015a57806306fdde031461018a578063081812fc146101a8578063095ea7b3146101d8575b600080fd5b610144610434565b6040516101519190612d9f565b60405180910390f35b610174600480360381019061016f9190612644565b610445565b6040516101819190612ae2565b60405180910390f35b610192610457565b60405161019f9190612afd565b60405180910390f35b6101c260048036038101906101bd919061269e565b6104e9565b6040516101cf9190612a7b565b60405180910390f35b6101f260048036038101906101ed9190612604565b61056e565b005b6101fc610686565b6040516102099190612d9f565b60405180910390f35b61022c60048036038101906102279190612492565b610693565b005b61024860048036038101906102439190612604565b6106f3565b6040516102559190612d9f565b60405180910390f35b61027860048036038101906102739190612492565b610798565b005b610294600480360381019061028f919061269e565b6107b8565b6040516102a19190612d9f565b60405180910390f35b6102c460048036038101906102bf919061269e565b610829565b6040516102d19190612a7b565b60405180910390f35b6102f460048036038101906102ef9190612425565b6108db565b6040516103019190612d9f565b60405180910390f35b610312610993565b005b61031c610a1b565b6040516103299190612a7b565b60405180910390f35b61033a610a45565b6040516103479190612afd565b60405180910390f35b61036a60048036038101906103659190612568565b610ad7565b005b610386600480360381019061038191906124e5565b610aed565b005b6103a2600480360381019061039d919061269e565b610b4f565b6040516103af9190612afd565b60405180910390f35b6103d260048036038101906103cd9190612452565b610b61565b6040516103df9190612ae2565b60405180910390f35b61040260048036038101906103fd91906125a8565b610bf5565b60405161040f9190612d9f565b60405180910390f35b610432600480360381019061042d9190612425565b610ca9565b005b6000610440600c610da1565b905090565b600061045082610daf565b9050919050565b60606000805461046690612ff5565b80601f016020809104026020016040519081016040528092919081815260200182805461049290612ff5565b80156104df5780601f106104b4576101008083540402835291602001916104df565b820191906000526020600020905b8154815290600101906020018083116104c257829003601f168201915b5050505050905090565b60006104f482610e29565b610533576040517f08c379a000000000000000000000000000000000000000000000000000000000815260040161052a90612cdf565b60405180910390fd5b6004600083815260200190815260200160002060009054906101000a900473ffffffffffffffffffffffffffffffffffffffff169050919050565b600061057982610829565b90508073ffffffffffffffffffffffffffffffffffffffff168373ffffffffffffffffffffffffffffffffffffffff1614156105ea576040517f08c379a00000000000000000000000000000000000000000000000000000000081526004016105e190612d3f565b60405180910390fd5b8073ffffffffffffffffffffffffffffffffffffffff16610609610e95565b73ffffffffffffffffffffffffffffffffffffffff161480610638575061063781610632610e95565b610b61565b5b610677576040517f08c379a000000000000000000000000000000000000000000000000000000000815260040161066e90612c1f565b60405180910390fd5b6106818383610e9d565b505050565b6000600a80549050905090565b6106a461069e610e95565b82610f56565b6106e3576040517f08c379a00000000000000000000000000000000000000000000000000000000081526004016106da90612d5f565b60405180910390fd5b6106ee838383611034565b505050565b60006106fe836108db565b821061073f576040517f08c379a000000000000000000000000000000000000000000000000000000000815260040161073690612b1f565b60405180910390fd5b600860008473ffffffffffffffffffffffffffffffffffffffff1673ffffffffffffffffffffffffffffffffffffffff168152602001908152602001600020600083815260200190815260200160002054905092915050565b6107b383838360405180602001604052806000815250610aed565b505050565b60006107c2610686565b8210610803576040517f08c379a00000000000000000000000000000000000000000000000000000000081526004016107fa90612d7f565b60405180910390fd5b600a82815481106108175761081661318e565b5b90600052602060002001549050919050565b6000806002600084815260200190815260200160002060009054906101000a900473ffffffffffffffffffffffffffffffffffffffff169050600073ffffffffffffffffffffffffffffffffffffffff168173ffffffffffffffffffffffffffffffffffffffff1614156108d2576040517f08c379a00000000000000000000000000000000000000000000000000000000081526004016108c990612c5f565b60405180910390fd5b80915050919050565b60008073ffffffffffffffffffffffffffffffffffffffff168273ffffffffffffffffffffffffffffffffffffffff16141561094c576040517f08c379a000000000000000000000000000000000000000000000000000000000815260040161094390612c3f565b60405180910390fd5b600360008373ffffffffffffffffffffffffffffffffffffffff1673ffffffffffffffffffffffffffffffffffffffff168152602001908152602001600020549050919050565b61099b610e95565b73ffffffffffffffffffffffffffffffffffffffff166109b9610a1b565b73ffffffffffffffffffffffffffffffffffffffff1614610a0f576040517f08c379a0000000000000000000000000000000000000000000000000000000008152600401610a0690612cff565b60405180910390fd5b610a19600061129b565b565b6000600760009054906101000a900473ffffffffffffffffffffffffffffffffffffffff16905090565b606060018054610a5490612ff5565b80601f0160208091040260200160405190810160405280929190818152602001828054610a8090612ff5565b8015610acd5780601f10610aa257610100808354040283529160200191610acd565b820191906000526020600020905b815481529060010190602001808311610ab057829003601f168201915b5050505050905090565b610ae9610ae2610e95565b8383611361565b5050565b610afe610af8610e95565b83610f56565b610b3d576040517f08c379a0000000000000000000000000000000000000000000000000000000008152600401610b3490612d5f565b60405180910390fd5b610b49848484846114ce565b50505050565b6060610b5a8261152a565b9050919050565b6000600560008473ffffffffffffffffffffffffffffffffffffffff1673ffffffffffffffffffffffffffffffffffffffff16815260200190815260200160002060008373ffffffffffffffffffffffffffffffffffffffff1673ffffffffffffffffffffffffffffffffffffffff16815260200190815260200160002060009054906101000a900460ff16905092915050565b6000610bff610e95565b73ffffffffffffffffffffffffffffffffffffffff16610c1d610a1b565b73ffffffffffffffffffffffffffffffffffffffff1614610c73576040517f08c379a0000000000000000000000000000000000000000000000000000000008152600401610c6a90612cff565b60405180910390fd5b610c7d600c61167c565b6000610c89600c610da1565b9050610c958482611692565b610c9f818461186c565b8091505092915050565b610cb1610e95565b73ffffffffffffffffffffffffffffffffffffffff16610ccf610a1b565b73ffffffffffffffffffffffffffffffffffffffff1614610d25576040517f08c379a0000000000000000000000000000000000000000000000000000000008152600401610d1c90612cff565b60405180910390fd5b600073ffffffffffffffffffffffffffffffffffffffff168173ffffffffffffffffffffffffffffffffffffffff161415610d95576040517f08c379a0000000000000000000000000000000000000000000000000000000008152600401610d8c90612b5f565b60405180910390fd5b610d9e8161129b565b50565b600081600001549050919050565b60007f780e9d63000000000000000000000000000000000000000000000000000000007bffffffffffffffffffffffffffffffffffffffffffffffffffffffff1916827bffffffffffffffffffffffffffffffffffffffffffffffffffffffff19161480610e225750610e21826118e0565b5b9050919050565b60008073ffffffffffffffffffffffffffffffffffffffff166002600084815260200190815260200160002060009054906101000a900473ffffffffffffffffffffffffffffffffffffffff1673ffffffffffffffffffffffffffffffffffffffff1614159050919050565b600033905090565b816004600083815260200190815260200160002060006101000a81548173ffffffffffffffffffffffffffffffffffffffff021916908373ffffffffffffffffffffffffffffffffffffffff160217905550808273ffffffffffffffffffffffffffffffffffffffff16610f1083610829565b73ffffffffffffffffffffffffffffffffffffffff167f8c5be1e5ebec7d5bd14f71427d1e84f3dd0314c0f7b2291e5b200ac8c7c3b92560405160405180910390a45050565b6000610f6182610e29565b610fa0576040517f08c379a0000000000000000000000000000000000000000000000000000000008152600401610f9790612bff565b60405180910390fd5b6000610fab83610829565b90508073ffffffffffffffffffffffffffffffffffffffff168473ffffffffffffffffffffffffffffffffffffffff16148061101a57508373ffffffffffffffffffffffffffffffffffffffff16611002846104e9565b73ffffffffffffffffffffffffffffffffffffffff16145b8061102b575061102a8185610b61565b5b91505092915050565b8273ffffffffffffffffffffffffffffffffffffffff1661105482610829565b73ffffffffffffffffffffffffffffffffffffffff16146110aa576040517f08c379a00000000000000000000000000000000000000000000000000000000081526004016110a190612b7f565b60405180910390fd5b600073ffffffffffffffffffffffffffffffffffffffff168273ffffffffffffffffffffffffffffffffffffffff16141561111a576040517f08c379a000000000000000000000000000000000000000000000000000000000815260040161111190612bbf565b60405180910390fd5b6111258383836119c2565b611130600082610e9d565b6001600360008573ffffffffffffffffffffffffffffffffffffffff1673ffffffffffffffffffffffffffffffffffffffff16815260200190815260200160002060008282546111809190612f0b565b925050819055506001600360008473ffffffffffffffffffffffffffffffffffffffff1673ffffffffffffffffffffffffffffffffffffffff16815260200190815260200160002060008282546111d79190612e84565b92505081905550816002600083815260200190815260200160002060006101000a81548173ffffffffffffffffffffffffffffffffffffffff021916908373ffffffffffffffffffffffffffffffffffffffff160217905550808273ffffffffffffffffffffffffffffffffffffffff168473ffffffffffffffffffffffffffffffffffffffff167fddf252ad1be2c89b69c2b068fc378daa952ba7f163c4a11628f55a4df523b3ef60405160405180910390a46112968383836119d2565b505050565b6000600760009054906101000a900473ffffffffffffffffffffffffffffffffffffffff16905081600760006101000a81548173ffffffffffffffffffffffffffffffffffffffff021916908373ffffffffffffffffffffffffffffffffffffffff1602179055508173ffffffffffffffffffffffffffffffffffffffff168173ffffffffffffffffffffffffffffffffffffffff167f8be0079c531659141344cd1fd0a4f28419497f9722a3daafe3b4186f6b6457e060405160405180910390a35050565b8173ffffffffffffffffffffffffffffffffffffffff168373ffffffffffffffffffffffffffffffffffffffff1614156113d0576040517f08c379a00000000000000000000000000000000000000000000000000000000081526004016113c790612bdf565b60405180910390fd5b80600560008573ffffffffffffffffffffffffffffffffffffffff1673ffffffffffffffffffffffffffffffffffffffff16815260200190815260200160002060008473ffffffffffffffffffffffffffffffffffffffff1673ffffffffffffffffffffffffffffffffffffffff16815260200190815260200160002060006101000a81548160ff0219169083151502179055508173ffffffffffffffffffffffffffffffffffffffff168373ffffffffffffffffffffffffffffffffffffffff167f17307eab39ab6107e8899845ad3d59bd9653f200f220920489ca2b5937696c31836040516114c19190612ae2565b60405180910390a3505050565b6114d9848484611034565b6114e5848484846119d7565b611524576040517f08c379a000000000000000000000000000000000000000000000000000000000815260040161151b90612b3f565b60405180910390fd5b50505050565b606061153582610e29565b611574576040517f08c379a000000000000000000000000000000000000000000000000000000000815260040161156b90612cbf565b60405180910390fd5b600060066000848152602001908152602001600020805461159490612ff5565b80601f01602080910402602001604051908101604052809291908181526020018280546115c090612ff5565b801561160d5780601f106115e25761010080835404028352916020019161160d565b820191906000526020600020905b8154815290600101906020018083116115f057829003601f168201915b50505050509050600061161e611b6e565b9050600081511415611634578192505050611677565b600082511115611669578082604051602001611651929190612a57565b60405160208183030381529060405292505050611677565b61167284611b85565b925050505b919050565b6001816000016000828254019250508190555050565b600073ffffffffffffffffffffffffffffffffffffffff168273ffffffffffffffffffffffffffffffffffffffff161415611702576040517f08c379a00000000000000000000000000000000000000000000000000000000081526004016116f990612c9f565b60405180910390fd5b61170b81610e29565b1561174b576040517f08c379a000000000000000000000000000000000000000000000000000000000815260040161174290612b9f565b60405180910390fd5b611757600083836119c2565b6001600360008473ffffffffffffffffffffffffffffffffffffffff1673ffffffffffffffffffffffffffffffffffffffff16815260200190815260200160002060008282546117a79190612e84565b92505081905550816002600083815260200190815260200160002060006101000a81548173ffffffffffffffffffffffffffffffffffffffff021916908373ffffffffffffffffffffffffffffffffffffffff160217905550808273ffffffffffffffffffffffffffffffffffffffff16600073ffffffffffffffffffffffffffffffffffffffff167fddf252ad1be2c89b69c2b068fc378daa952ba7f163c4a11628f55a4df523b3ef60405160405180910390a4611868600083836119d2565b5050565b61187582610e29565b6118b4576040517f08c379a00000000000000000000000000000000000000000000000000000000081526004016118ab90612c7f565b60405180910390fd5b806006600084815260200190815260200160002090805190602001906118db929190612239565b505050565b60007f80ac58cd000000000000000000000000000000000000000000000000000000007bffffffffffffffffffffffffffffffffffffffffffffffffffffffff1916827bffffffffffffffffffffffffffffffffffffffffffffffffffffffff191614806119ab57507f5b5e139f000000000000000000000000000000000000000000000000000000007bffffffffffffffffffffffffffffffffffffffffffffffffffffffff1916827bffffffffffffffffffffffffffffffffffffffffffffffffffffffff1916145b806119bb57506119ba82611c2c565b5b9050919050565b6119cd838383611c96565b505050565b505050565b60006119f88473ffffffffffffffffffffffffffffffffffffffff16611daa565b15611b61578373ffffffffffffffffffffffffffffffffffffffff1663150b7a02611a21610e95565b8786866040518563ffffffff1660e01b8152600401611a439493929190612a96565b602060405180830381600087803b158015611a5d57600080fd5b505af1925050508015611a8e57506040513d601f19601f82011682018060405250810190611a8b9190612671565b60015b611b11573d8060008114611abe576040519150601f19603f3d011682016040523d82523d6000602084013e611ac3565b606091505b50600081511415611b09576040517f08c379a0000000000000000000000000000000000000000000000000000000008152600401611b0090612b3f565b60405180910390fd5b805181602001fd5b63150b7a0260e01b7bffffffffffffffffffffffffffffffffffffffffffffffffffffffff1916817bffffffffffffffffffffffffffffffffffffffffffffffffffffffff191614915050611b66565b600190505b949350505050565b606060405180602001604052806000815250905090565b6060611b9082610e29565b611bcf576040517f08c379a0000000000000000000000000000000000000000000000000000000008152600401611bc690612d1f565b60405180910390fd5b6000611bd9611b6e565b90506000815111611bf95760405180602001604052806000815250611c24565b80611c0384611dcd565b604051602001611c14929190612a57565b6040516020818303038152906040525b915050919050565b60007f01ffc9a7000000000000000000000000000000000000000000000000000000007bffffffffffffffffffffffffffffffffffffffffffffffffffffffff1916827bffffffffffffffffffffffffffffffffffffffffffffffffffffffff1916149050919050565b611ca1838383611f2e565b600073ffffffffffffffffffffffffffffffffffffffff168373ffffffffffffffffffffffffffffffffffffffff161415611ce457611cdf81611f33565b611d23565b8173ffffffffffffffffffffffffffffffffffffffff168373ffffffffffffffffffffffffffffffffffffffff1614611d2257611d218382611f7c565b5b5b600073ffffffffffffffffffffffffffffffffffffffff168273ffffffffffffffffffffffffffffffffffffffff161415611d6657611d61816120e9565b611da5565b8273ffffffffffffffffffffffffffffffffffffffff168273ffffffffffffffffffffffffffffffffffffffff1614611da457611da382826121ba565b5b5b505050565b6000808273ffffffffffffffffffffffffffffffffffffffff163b119050919050565b60606000821415611e15576040518060400160405280600181526020017f30000000000000000000000000000000000000000000000000000000000000008152509050611f29565b600082905060005b60008214611e47578080611e3090613058565b915050600a82611e409190612eda565b9150611e1d565b60008167ffffffffffffffff811115611e6357611e626131bd565b5b6040519080825280601f01601f191660200182016040528015611e955781602001600182028036833780820191505090505b5090505b60008514611f2257600182611eae9190612f0b565b9150600a85611ebd91906130a1565b6030611ec99190612e84565b60f81b818381518110611edf57611ede61318e565b5b60200101907effffffffffffffffffffffffffffffffffffffffffffffffffffffffffffff1916908160001a905350600a85611f1b9190612eda565b9450611e99565b8093505050505b919050565b505050565b600a80549050600b600083815260200190815260200160002081905550600a81908060018154018082558091505060019003906000526020600020016000909190919091505550565b60006001611f89846108db565b611f939190612f0b565b9050600060096000848152602001908152602001600020549050818114612078576000600860008673ffffffffffffffffffffffffffffffffffffffff1673ffffffffffffffffffffffffffffffffffffffff168152602001908152602001600020600084815260200190815260200160002054905080600860008773ffffffffffffffffffffffffffffffffffffffff1673ffffffffffffffffffffffffffffffffffffffff168152602001908152602001600020600084815260200190815260200160002081905550816009600083815260200190815260200160002081905550505b6009600084815260200190815260200160002060009055600860008573ffffffffffffffffffffffffffffffffffffffff1673ffffffffffffffffffffffffffffffffffffffff16815260200190815260200160002060008381526020019081526020016000206000905550505050565b60006001600a805490506120fd9190612f0b565b90506000600b60008481526020019081526020016000205490506000600a838154811061212d5761212c61318e565b5b9060005260206000200154905080600a838154811061214f5761214e61318e565b5b906000526020600020018190555081600b600083815260200190815260200160002081905550600b600085815260200190815260200160002060009055600a80548061219e5761219d61315f565b5b6001900381819060005260206000200160009055905550505050565b60006121c5836108db565b905081600860008573ffffffffffffffffffffffffffffffffffffffff1673ffffffffffffffffffffffffffffffffffffffff168152602001908152602001600020600083815260200190815260200160002081905550806009600084815260200190815260200160002081905550505050565b82805461224590612ff5565b90600052602060002090601f01602090048101928261226757600085556122ae565b82601f1061228057805160ff19168380011785556122ae565b828001600101855582156122ae579182015b828111156122ad578251825591602001919060010190612292565b5b5090506122bb91906122bf565b5090565b5b808211156122d85760008160009055506001016122c0565b5090565b60006122ef6122ea84612ddf565b612dba565b90508281526020810184848401111561230b5761230a6131f1565b5b612316848285612fb3565b509392505050565b600061233161232c84612e10565b612dba565b90508281526020810184848401111561234d5761234c6131f1565b5b612358848285612fb3565b509392505050565b60008135905061236f816137a5565b92915050565b600081359050612384816137bc565b92915050565b600081359050612399816137d3565b92915050565b6000815190506123ae816137d3565b92915050565b600082601f8301126123c9576123c86131ec565b5b81356123d98482602086016122dc565b91505092915050565b600082601f8301126123f7576123f66131ec565b5b813561240784826020860161231e565b91505092915050565b60008135905061241f816137ea565b92915050565b60006020828403121561243b5761243a6131fb565b5b600061244984828501612360565b91505092915050565b60008060408385031215612469576124686131fb565b5b600061247785828601612360565b925050602061248885828601612360565b9150509250929050565b6000806000606084860312156124ab576124aa6131fb565b5b60006124b986828701612360565b93505060206124ca86828701612360565b92505060406124db86828701612410565b9150509250925092565b600080600080608085870312156124ff576124fe6131fb565b5b600061250d87828801612360565b945050602061251e87828801612360565b935050604061252f87828801612410565b925050606085013567ffffffffffffffff8111156125505761254f6131f6565b5b61255c878288016123b4565b91505092959194509250565b6000806040838503121561257f5761257e6131fb565b5b600061258d85828601612360565b925050602061259e85828601612375565b9150509250929050565b600080604083850312156125bf576125be6131fb565b5b60006125cd85828601612360565b925050602083013567ffffffffffffffff8111156125ee576125ed6131f6565b5b6125fa858286016123e2565b9150509250929050565b6000806040838503121561261b5761261a6131fb565b5b600061262985828601612360565b925050602061263a85828601612410565b9150509250929050565b60006020828403121561265a576126596131fb565b5b60006126688482850161238a565b91505092915050565b600060208284031215612687576126866131fb565b5b60006126958482850161239f565b91505092915050565b6000602082840312156126b4576126b36131fb565b5b60006126c284828501612410565b91505092915050565b6126d481612f3f565b82525050565b6126e381612f51565b82525050565b60006126f482612e41565b6126fe8185612e57565b935061270e818560208601612fc2565b61271781613200565b840191505092915050565b600061272d82612e4c565b6127378185612e68565b9350612747818560208601612fc2565b61275081613200565b840191505092915050565b600061276682612e4c565b6127708185612e79565b9350612780818560208601612fc2565b80840191505092915050565b6000612799602b83612e68565b91506127a482613211565b604082019050919050565b60006127bc603283612e68565b91506127c782613260565b604082019050919050565b60006127df602683612e68565b91506127ea826132af565b604082019050919050565b6000612802602583612e68565b915061280d826132fe565b604082019050919050565b6000612825601c83612e68565b91506128308261334d565b602082019050919050565b6000612848602483612e68565b915061285382613376565b604082019050919050565b600061286b601983612e68565b9150612876826133c5565b602082019050919050565b600061288e602c83612e68565b9150612899826133ee565b604082019050919050565b60006128b1603883612e68565b91506128bc8261343d565b604082019050919050565b60006128d4602a83612e68565b91506128df8261348c565b604082019050919050565b60006128f7602983612e68565b9150612902826134db565b604082019050919050565b600061291a602e83612e68565b91506129258261352a565b604082019050919050565b600061293d602083612e68565b915061294882613579565b602082019050919050565b6000612960603183612e68565b915061296b826135a2565b604082019050919050565b6000612983602c83612e68565b915061298e826135f1565b604082019050919050565b60006129a6602083612e68565b91506129b182613640565b602082019050919050565b60006129c9602f83612e68565b91506129d482613669565b604082019050919050565b60006129ec602183612e68565b91506129f7826136b8565b604082019050919050565b6000612a0f603183612e68565b9150612a1a82613707565b604082019050919050565b6000612a32602c83612e68565b9150612a3d82613756565b604082019050919050565b612a5181612fa9565b82525050565b6000612a63828561275b565b9150612a6f828461275b565b91508190509392505050565b6000602082019050612a9060008301846126cb565b92915050565b6000608082019050612aab60008301876126cb565b612ab860208301866126cb565b612ac56040830185612a48565b8181036060830152612ad781846126e9565b905095945050505050565b6000602082019050612af760008301846126da565b92915050565b60006020820190508181036000830152612b178184612722565b905092915050565b60006020820190508181036000830152612b388161278c565b9050919050565b60006020820190508181036000830152612b58816127af565b9050919050565b60006020820190508181036000830152612b78816127d2565b9050919050565b60006020820190508181036000830152612b98816127f5565b9050919050565b60006020820190508181036000830152612bb881612818565b9050919050565b60006020820190508181036000830152612bd88161283b565b9050919050565b60006020820190508181036000830152612bf88161285e565b9050919050565b60006020820190508181036000830152612c1881612881565b9050919050565b60006020820190508181036000830152612c38816128a4565b9050919050565b60006020820190508181036000830152612c58816128c7565b9050919050565b60006020820190508181036000830152612c78816128ea565b9050919050565b60006020820190508181036000830152612c988161290d565b9050919050565b60006020820190508181036000830152612cb881612930565b9050919050565b60006020820190508181036000830152612cd881612953565b9050919050565b60006020820190508181036000830152612cf881612976565b9050919050565b60006020820190508181036000830152612d1881612999565b9050919050565b60006020820190508181036000830152612d38816129bc565b9050919050565b60006020820190508181036000830152612d58816129df565b9050919050565b60006020820190508181036000830152612d7881612a02565b9050919050565b60006020820190508181036000830152612d9881612a25565b9050919050565b6000602082019050612db46000830184612a48565b92915050565b6000612dc4612dd5565b9050612dd08282613027565b919050565b6000604051905090565b600067ffffffffffffffff821115612dfa57612df96131bd565b5b612e0382613200565b9050602081019050919050565b600067ffffffffffffffff821115612e2b57612e2a6131bd565b5b612e3482613200565b9050602081019050919050565b600081519050919050565b600081519050919050565b600082825260208201905092915050565b600082825260208201905092915050565b600081905092915050565b6000612e8f82612fa9565b9150612e9a83612fa9565b9250827fffffffffffffffffffffffffffffffffffffffffffffffffffffffffffffffff03821115612ecf57612ece6130d2565b5b828201905092915050565b6000612ee582612fa9565b9150612ef083612fa9565b925082612f0057612eff613101565b5b828204905092915050565b6000612f1682612fa9565b9150612f2183612fa9565b925082821015612f3457612f336130d2565b5b828203905092915050565b6000612f4a82612f89565b9050919050565b60008115159050919050565b60007fffffffff0000000000000000000000000000000000000000000000000000000082169050919050565b600073ffffffffffffffffffffffffffffffffffffffff82169050919050565b6000819050919050565b82818337600083830152505050565b60005b83811015612fe0578082015181840152602081019050612fc5565b83811115612fef576000848401525b50505050565b6000600282049050600182168061300d57607f821691505b6020821081141561302157613020613130565b5b50919050565b61303082613200565b810181811067ffffffffffffffff8211171561304f5761304e6131bd565b5b80604052505050565b600061306382612fa9565b91507fffffffffffffffffffffffffffffffffffffffffffffffffffffffffffffffff821415613096576130956130d2565b5b600182019050919050565b60006130ac82612fa9565b91506130b783612fa9565b9250826130c7576130c6613101565b5b828206905092915050565b7f4e487b7100000000000000000000000000000000000000000000000000000000600052601160045260246000fd5b7f4e487b7100000000000000000000000000000000000000000000000000000000600052601260045260246000fd5b7f4e487b7100000000000000000000000000000000000000000000000000000000600052602260045260246000fd5b7f4e487b7100000000000000000000000000000000000000000000000000000000600052603160045260246000fd5b7f4e487b7100000000000000000000000000000000000000000000000000000000600052603260045260246000fd5b7f4e487b7100000000000000000000000000000000000000000000000000000000600052604160045260246000fd5b600080fd5b600080fd5b600080fd5b600080fd5b6000601f19601f8301169050919050565b7f455243373231456e756d657261626c653a206f776e657220696e646578206f7560008201527f74206f6620626f756e6473000000000000000000000000000000000000000000602082015250565b7f4552433732313a207472616e7366657220746f206e6f6e20455243373231526560008201527f63656976657220696d706c656d656e7465720000000000000000000000000000602082015250565b7f4f776e61626c653a206e6577206f776e657220697320746865207a65726f206160008201527f6464726573730000000000000000000000000000000000000000000000000000602082015250565b7f4552433732313a207472616e736665722066726f6d20696e636f72726563742060008201527f6f776e6572000000000000000000000000000000000000000000000000000000602082015250565b7f4552433732313a20746f6b656e20616c7265616479206d696e74656400000000600082015250565b7f4552433732313a207472616e7366657220746f20746865207a65726f2061646460008201527f7265737300000000000000000000000000000000000000000000000000000000602082015250565b7f4552433732313a20617070726f766520746f2063616c6c657200000000000000600082015250565b7f4552433732313a206f70657261746f7220717565727920666f72206e6f6e657860008201527f697374656e7420746f6b656e0000000000000000000000000000000000000000602082015250565b7f4552433732313a20617070726f76652063616c6c6572206973206e6f74206f7760008201527f6e6572206e6f7220617070726f76656420666f7220616c6c0000000000000000602082015250565b7f4552433732313a2062616c616e636520717565727920666f7220746865207a6560008201527f726f206164647265737300000000000000000000000000000000000000000000602082015250565b7f4552433732313a206f776e657220717565727920666f72206e6f6e657869737460008201527f656e7420746f6b656e0000000000000000000000000000000000000000000000602082015250565b7f45524337323155524953746f726167653a2055524920736574206f66206e6f6e60008201527f6578697374656e7420746f6b656e000000000000000000000000000000000000602082015250565b7f4552433732313a206d696e7420746f20746865207a65726f2061646472657373600082015250565b7f45524337323155524953746f726167653a2055524920717565727920666f722060008201527f6e6f6e6578697374656e7420746f6b656e000000000000000000000000000000602082015250565b7f4552433732313a20617070726f76656420717565727920666f72206e6f6e657860008201527f697374656e7420746f6b656e0000000000000000000000000000000000000000602082015250565b7f4f776e61626c653a2063616c6c6572206973206e6f7420746865206f776e6572600082015250565b7f4552433732314d657461646174613a2055524920717565727920666f72206e6f60008201527f6e6578697374656e7420746f6b656e0000000000000000000000000000000000602082015250565b7f4552433732313a20617070726f76616c20746f2063757272656e74206f776e6560008201527f7200000000000000000000000000000000000000000000000000000000000000602082015250565b7f4552433732313a207472616e736665722063616c6c6572206973206e6f74206f60008201527f776e6572206e6f7220617070726f766564000000000000000000000000000000602082015250565b7f455243373231456e756d657261626c653a20676c6f62616c20696e646578206f60008201527f7574206f6620626f756e64730000000000000000000000000000000000000000602082015250565b6137ae81612f3f565b81146137b957600080fd5b50565b6137c581612f51565b81146137d057600080fd5b50565b6137dc81612f5d565b81146137e757600080fd5b50565b6137f381612fa9565b81146137fe57600080fd5b5056fea26469706673582212206201ff2eae9bec2b91b955bc9e0c06c35a17890958c791d26a8cac3860eca02b64736f6c63430008070033",
  "immutableReferences": {},
  "source": "//Contract based on [https://docs.openzeppelin.com/contracts/3.x/erc721](https://docs.openzeppelin.com/contracts/3.x/erc721)\n// SPDX-License-Identifier: MIT\npragma solidity ^0.8.7;\n\nimport \"@openzeppelin/contracts/token/ERC721/ERC721.sol\";\nimport \"@openzeppelin/contracts/utils/Counters.sol\";\nimport \"@openzeppelin/contracts/access/Ownable.sol\";\nimport \"@openzeppelin/contracts/token/ERC721/extensions/ERC721URIStorage.sol\";\nimport \"@openzeppelin/contracts/token/ERC721/extensions/ERC721Enumerable.sol\";\n\ncontract art1st is ERC721URIStorage, Ownable, ERC721Enumerable {\n    using Counters for Counters.Counter;\n    Counters.Counter private _tokenIds;\n\n    constructor() ERC721(\"art1st\", \"ART\"){}\n\n    function _beforeTokenTransfer(\n        address from,\n        address to,\n        uint256 tokenId\n    ) internal\n      override(ERC721, ERC721Enumerable) {\n        super._beforeTokenTransfer(from, to, tokenId);\n    }\n\n\n    function _burn(\n        uint256 tokenId\n    ) internal\n      override(ERC721, ERC721URIStorage) {\n        super._burn(tokenId);\n    }\n\n    function supportsInterface(bytes4 interfaceId)\n        public\n        view\n        override(ERC721, ERC721Enumerable)\n        returns (bool)\n    {\n        return super.supportsInterface(interfaceId);\n    }\n    \n   function tokenURI(\n        uint256 tokenId\n    ) public view\n      override(ERC721, ERC721URIStorage) returns (string memory) {\n        return super.tokenURI(tokenId);\n    }\n\n  function getTokenId () public  returns (uint256){   \n        return _tokenIds.current();\n    }\n    \n    function mintNFT(address recipient, string memory _tokenURI) public onlyOwner returns (uint256) {\n        _tokenIds.increment();\n\n        uint256 newItemId = _tokenIds.current();\n        _mint(recipient, newItemId);\n        _setTokenURI(newItemId, _tokenURI);\n\n        return newItemId;\n    }\n}\n",
  "sourcePath": "/home/sugeunji//BEB_02_project3_Art1st/contract/contracts/art1st.sol",
  "compiler": {
    "name": "solc",
    "version": "0.8.7+commit.e28d00a7.Emscripten.clang"
  },
  "schemaVersion": "3.4.4",
  "updatedAt": "2022-03-25T06:59:10.945Z",
  "networkType": "ethereum",
  "devdoc": {
    "kind": "dev",
    "methods": {
      "approve(address,uint256)": {
        "details": "See {IERC721-approve}."
      },
      "balanceOf(address)": {
        "details": "See {IERC721-balanceOf}."
      },
      "getApproved(uint256)": {
        "details": "See {IERC721-getApproved}."
      },
      "isApprovedForAll(address,address)": {
        "details": "See {IERC721-isApprovedForAll}."
      },
      "name()": {
        "details": "See {IERC721Metadata-name}."
      },
      "owner()": {
        "details": "Returns the address of the current owner."
      },
      "ownerOf(uint256)": {
        "details": "See {IERC721-ownerOf}."
      },
      "renounceOwnership()": {
        "details": "Leaves the contract without owner. It will not be possible to call `onlyOwner` functions anymore. Can only be called by the current owner. NOTE: Renouncing ownership will leave the contract without an owner, thereby removing any functionality that is only available to the owner."
      },
      "safeTransferFrom(address,address,uint256)": {
        "details": "See {IERC721-safeTransferFrom}."
      },
      "safeTransferFrom(address,address,uint256,bytes)": {
        "details": "See {IERC721-safeTransferFrom}."
      },
      "setApprovalForAll(address,bool)": {
        "details": "See {IERC721-setApprovalForAll}."
      },
      "symbol()": {
        "details": "See {IERC721Metadata-symbol}."
      },
      "tokenByIndex(uint256)": {
        "details": "See {IERC721Enumerable-tokenByIndex}."
      },
      "tokenOfOwnerByIndex(address,uint256)": {
        "details": "See {IERC721Enumerable-tokenOfOwnerByIndex}."
      },
      "totalSupply()": {
        "details": "See {IERC721Enumerable-totalSupply}."
      },
      "transferFrom(address,address,uint256)": {
        "details": "See {IERC721-transferFrom}."
      },
      "transferOwnership(address)": {
        "details": "Transfers ownership of the contract to a new account (`newOwner`). Can only be called by the current owner."
      }
    },
    "version": 1
  },
  "userdoc": {
    "kind": "user",
    "methods": {},
    "version": 1
  }
}