{
  "contractName": "artist",
  "abi": [
    {
      "inputs": [],
      "stateMutability": "nonpayable",
      "type": "constructor"
    },
    {
      "anonymous": false,
      "inputs": [
        {
          "indexed": true,
          "internalType": "address",
          "name": "owner",
          "type": "address"
        },
        {
          "indexed": true,
          "internalType": "address",
          "name": "approved",
          "type": "address"
        },
        {
          "indexed": true,
          "internalType": "uint256",
          "name": "tokenId",
          "type": "uint256"
        }
      ],
      "name": "Approval",
      "type": "event"
    },
    {
      "anonymous": false,
      "inputs": [
        {
          "indexed": true,
          "internalType": "address",
          "name": "owner",
          "type": "address"
        },
        {
          "indexed": true,
          "internalType": "address",
          "name": "operator",
          "type": "address"
        },
        {
          "indexed": false,
          "internalType": "bool",
          "name": "approved",
          "type": "bool"
        }
      ],
      "name": "ApprovalForAll",
      "type": "event"
    },
    {
      "anonymous": false,
      "inputs": [
        {
          "indexed": true,
          "internalType": "address",
          "name": "previousOwner",
          "type": "address"
        },
        {
          "indexed": true,
          "internalType": "address",
          "name": "newOwner",
          "type": "address"
        }
      ],
      "name": "OwnershipTransferred",
      "type": "event"
    },
    {
      "anonymous": false,
      "inputs": [
        {
          "indexed": true,
          "internalType": "address",
          "name": "from",
          "type": "address"
        },
        {
          "indexed": true,
          "internalType": "address",
          "name": "to",
          "type": "address"
        },
        {
          "indexed": true,
          "internalType": "uint256",
          "name": "tokenId",
          "type": "uint256"
        }
      ],
      "name": "Transfer",
      "type": "event"
    },
    {
      "inputs": [
        {
          "internalType": "address",
          "name": "to",
          "type": "address"
        },
        {
          "internalType": "uint256",
          "name": "tokenId",
          "type": "uint256"
        }
      ],
      "name": "approve",
      "outputs": [],
      "stateMutability": "nonpayable",
      "type": "function"
    },
    {
      "inputs": [
        {
          "internalType": "address",
          "name": "owner",
          "type": "address"
        }
      ],
      "name": "balanceOf",
      "outputs": [
        {
          "internalType": "uint256",
          "name": "",
          "type": "uint256"
        }
      ],
      "stateMutability": "view",
      "type": "function"
    },
    {
      "inputs": [
        {
          "internalType": "uint256",
          "name": "tokenId",
          "type": "uint256"
        }
      ],
      "name": "getApproved",
      "outputs": [
        {
          "internalType": "address",
          "name": "",
          "type": "address"
        }
      ],
      "stateMutability": "view",
      "type": "function"
    },
    {
      "inputs": [
        {
          "internalType": "address",
          "name": "owner",
          "type": "address"
        },
        {
          "internalType": "address",
          "name": "operator",
          "type": "address"
        }
      ],
      "name": "isApprovedForAll",
      "outputs": [
        {
          "internalType": "bool",
          "name": "",
          "type": "bool"
        }
      ],
      "stateMutability": "view",
      "type": "function"
    },
    {
      "inputs": [],
      "name": "name",
      "outputs": [
        {
          "internalType": "string",
          "name": "",
          "type": "string"
        }
      ],
      "stateMutability": "view",
      "type": "function"
    },
    {
      "inputs": [],
      "name": "owner",
      "outputs": [
        {
          "internalType": "address",
          "name": "",
          "type": "address"
        }
      ],
      "stateMutability": "view",
      "type": "function"
    },
    {
      "inputs": [
        {
          "internalType": "uint256",
          "name": "tokenId",
          "type": "uint256"
        }
      ],
      "name": "ownerOf",
      "outputs": [
        {
          "internalType": "address",
          "name": "",
          "type": "address"
        }
      ],
      "stateMutability": "view",
      "type": "function"
    },
    {
      "inputs": [],
      "name": "renounceOwnership",
      "outputs": [],
      "stateMutability": "nonpayable",
      "type": "function"
    },
    {
      "inputs": [
        {
          "internalType": "address",
          "name": "from",
          "type": "address"
        },
        {
          "internalType": "address",
          "name": "to",
          "type": "address"
        },
        {
          "internalType": "uint256",
          "name": "tokenId",
          "type": "uint256"
        }
      ],
      "name": "safeTransferFrom",
      "outputs": [],
      "stateMutability": "nonpayable",
      "type": "function"
    },
    {
      "inputs": [
        {
          "internalType": "address",
          "name": "from",
          "type": "address"
        },
        {
          "internalType": "address",
          "name": "to",
          "type": "address"
        },
        {
          "internalType": "uint256",
          "name": "tokenId",
          "type": "uint256"
        },
        {
          "internalType": "bytes",
          "name": "_data",
          "type": "bytes"
        }
      ],
      "name": "safeTransferFrom",
      "outputs": [],
      "stateMutability": "nonpayable",
      "type": "function"
    },
    {
      "inputs": [
        {
          "internalType": "address",
          "name": "operator",
          "type": "address"
        },
        {
          "internalType": "bool",
          "name": "approved",
          "type": "bool"
        }
      ],
      "name": "setApprovalForAll",
      "outputs": [],
      "stateMutability": "nonpayable",
      "type": "function"
    },
    {
      "inputs": [
        {
          "internalType": "bytes4",
          "name": "interfaceId",
          "type": "bytes4"
        }
      ],
      "name": "supportsInterface",
      "outputs": [
        {
          "internalType": "bool",
          "name": "",
          "type": "bool"
        }
      ],
      "stateMutability": "view",
      "type": "function"
    },
    {
      "inputs": [],
      "name": "symbol",
      "outputs": [
        {
          "internalType": "string",
          "name": "",
          "type": "string"
        }
      ],
      "stateMutability": "view",
      "type": "function"
    },
    {
      "inputs": [
        {
          "internalType": "uint256",
          "name": "tokenId",
          "type": "uint256"
        }
      ],
      "name": "tokenURI",
      "outputs": [
        {
          "internalType": "string",
          "name": "",
          "type": "string"
        }
      ],
      "stateMutability": "view",
      "type": "function"
    },
    {
      "inputs": [
        {
          "internalType": "address",
          "name": "from",
          "type": "address"
        },
        {
          "internalType": "address",
          "name": "to",
          "type": "address"
        },
        {
          "internalType": "uint256",
          "name": "tokenId",
          "type": "uint256"
        }
      ],
      "name": "transferFrom",
      "outputs": [],
      "stateMutability": "nonpayable",
      "type": "function"
    },
    {
      "inputs": [
        {
          "internalType": "address",
          "name": "newOwner",
          "type": "address"
        }
      ],
      "name": "transferOwnership",
      "outputs": [],
      "stateMutability": "nonpayable",
      "type": "function"
    }
  ],
  "bytecode": "0x60806040523480156200001157600080fd5b506040518060400160405280600681526020017f61727469737400000000000000000000000000000000000000000000000000008152506040518060400160405280600381526020017f4152540000000000000000000000000000000000000000000000000000000000815250816000908051906020019062000096929190620001b5565b508060019080519060200190620000af929190620001b5565b505050620000d2620000c6620000e760201b60201c565b620000ef60201b60201c565b670de0b6b3a7640000600881905550620002ca565b600033905090565b6000600760009054906101000a900473ffffffffffffffffffffffffffffffffffffffff16905081600760006101000a81548173ffffffffffffffffffffffffffffffffffffffff021916908373ffffffffffffffffffffffffffffffffffffffff1602179055508173ffffffffffffffffffffffffffffffffffffffff168173ffffffffffffffffffffffffffffffffffffffff167f8be0079c531659141344cd1fd0a4f28419497f9722a3daafe3b4186f6b6457e060405160405180910390a35050565b828054620001c39062000265565b90600052602060002090601f016020900481019282620001e7576000855562000233565b82601f106200020257805160ff191683800117855562000233565b8280016001018555821562000233579182015b828111156200023257825182559160200191906001019062000215565b5b50905062000242919062000246565b5090565b5b808211156200026157600081600090555060010162000247565b5090565b600060028204905060018216806200027e57607f821691505b602082108114156200029557620002946200029b565b5b50919050565b7f4e487b7100000000000000000000000000000000000000000000000000000000600052602260045260246000fd5b6129b580620002da6000396000f3fe608060405234801561001057600080fd5b50600436106101005760003560e01c8063715018a611610097578063b88d4fde11610066578063b88d4fde14610299578063c87b56dd146102b5578063e985e9c5146102e5578063f2fde38b1461031557610100565b8063715018a6146102375780638da5cb5b1461024157806395d89b411461025f578063a22cb4651461027d57610100565b806323b872dd116100d357806323b872dd1461019f57806342842e0e146101bb5780636352211e146101d757806370a082311461020757610100565b806301ffc9a71461010557806306fdde0314610135578063081812fc14610153578063095ea7b314610183575b600080fd5b61011f600480360381019061011a9190611ab0565b610331565b60405161012c9190611e9f565b60405180910390f35b61013d610413565b60405161014a9190611eba565b60405180910390f35b61016d60048036038101906101689190611b0a565b6104a5565b60405161017a9190611e38565b60405180910390f35b61019d60048036038101906101989190611a70565b61052a565b005b6101b960048036038101906101b4919061195a565b610642565b005b6101d560048036038101906101d0919061195a565b6106a2565b005b6101f160048036038101906101ec9190611b0a565b6106c2565b6040516101fe9190611e38565b60405180910390f35b610221600480360381019061021c91906118ed565b610774565b60405161022e91906120bc565b60405180910390f35b61023f61082c565b005b6102496108b4565b6040516102569190611e38565b60405180910390f35b6102676108de565b6040516102749190611eba565b60405180910390f35b61029760048036038101906102929190611a30565b610970565b005b6102b360048036038101906102ae91906119ad565b610986565b005b6102cf60048036038101906102ca9190611b0a565b6109e8565b6040516102dc9190611eba565b60405180910390f35b6102ff60048036038101906102fa919061191a565b610b3a565b60405161030c9190611e9f565b60405180910390f35b61032f600480360381019061032a91906118ed565b610bce565b005b60007f80ac58cd000000000000000000000000000000000000000000000000000000007bffffffffffffffffffffffffffffffffffffffffffffffffffffffff1916827bffffffffffffffffffffffffffffffffffffffffffffffffffffffff191614806103fc57507f5b5e139f000000000000000000000000000000000000000000000000000000007bffffffffffffffffffffffffffffffffffffffffffffffffffffffff1916827bffffffffffffffffffffffffffffffffffffffffffffffffffffffff1916145b8061040c575061040b82610cc6565b5b9050919050565b606060008054610422906122e1565b80601f016020809104026020016040519081016040528092919081815260200182805461044e906122e1565b801561049b5780601f106104705761010080835404028352916020019161049b565b820191906000526020600020905b81548152906001019060200180831161047e57829003601f168201915b5050505050905090565b60006104b082610d30565b6104ef576040517f08c379a00000000000000000000000000000000000000000000000000000000081526004016104e69061201c565b60405180910390fd5b6004600083815260200190815260200160002060009054906101000a900473ffffffffffffffffffffffffffffffffffffffff169050919050565b6000610535826106c2565b90508073ffffffffffffffffffffffffffffffffffffffff168373ffffffffffffffffffffffffffffffffffffffff1614156105a6576040517f08c379a000000000000000000000000000000000000000000000000000000000815260040161059d9061207c565b60405180910390fd5b8073ffffffffffffffffffffffffffffffffffffffff166105c5610d9c565b73ffffffffffffffffffffffffffffffffffffffff1614806105f457506105f3816105ee610d9c565b610b3a565b5b610633576040517f08c379a000000000000000000000000000000000000000000000000000000000815260040161062a90611f9c565b60405180910390fd5b61063d8383610da4565b505050565b61065361064d610d9c565b82610e5d565b610692576040517f08c379a00000000000000000000000000000000000000000000000000000000081526004016106899061209c565b60405180910390fd5b61069d838383610f3b565b505050565b6106bd83838360405180602001604052806000815250610986565b505050565b6000806002600084815260200190815260200160002060009054906101000a900473ffffffffffffffffffffffffffffffffffffffff169050600073ffffffffffffffffffffffffffffffffffffffff168173ffffffffffffffffffffffffffffffffffffffff16141561076b576040517f08c379a000000000000000000000000000000000000000000000000000000000815260040161076290611fdc565b60405180910390fd5b80915050919050565b60008073ffffffffffffffffffffffffffffffffffffffff168273ffffffffffffffffffffffffffffffffffffffff1614156107e5576040517f08c379a00000000000000000000000000000000000000000000000000000000081526004016107dc90611fbc565b60405180910390fd5b600360008373ffffffffffffffffffffffffffffffffffffffff1673ffffffffffffffffffffffffffffffffffffffff168152602001908152602001600020549050919050565b610834610d9c565b73ffffffffffffffffffffffffffffffffffffffff166108526108b4565b73ffffffffffffffffffffffffffffffffffffffff16146108a8576040517f08c379a000000000000000000000000000000000000000000000000000000000815260040161089f9061203c565b60405180910390fd5b6108b260006111a2565b565b6000600760009054906101000a900473ffffffffffffffffffffffffffffffffffffffff16905090565b6060600180546108ed906122e1565b80601f0160208091040260200160405190810160405280929190818152602001828054610919906122e1565b80156109665780601f1061093b57610100808354040283529160200191610966565b820191906000526020600020905b81548152906001019060200180831161094957829003601f168201915b5050505050905090565b61098261097b610d9c565b8383611268565b5050565b610997610991610d9c565b83610e5d565b6109d6576040517f08c379a00000000000000000000000000000000000000000000000000000000081526004016109cd9061209c565b60405180910390fd5b6109e2848484846113d5565b50505050565b60606109f382610d30565b610a32576040517f08c379a0000000000000000000000000000000000000000000000000000000008152600401610a2990611ffc565b60405180910390fd5b6000600660008481526020019081526020016000208054610a52906122e1565b80601f0160208091040260200160405190810160405280929190818152602001828054610a7e906122e1565b8015610acb5780601f10610aa057610100808354040283529160200191610acb565b820191906000526020600020905b815481529060010190602001808311610aae57829003601f168201915b505050505090506000610adc611431565b9050600081511415610af2578192505050610b35565b600082511115610b27578082604051602001610b0f929190611e14565b60405160208183030381529060405292505050610b35565b610b3084611448565b925050505b919050565b6000600560008473ffffffffffffffffffffffffffffffffffffffff1673ffffffffffffffffffffffffffffffffffffffff16815260200190815260200160002060008373ffffffffffffffffffffffffffffffffffffffff1673ffffffffffffffffffffffffffffffffffffffff16815260200190815260200160002060009054906101000a900460ff16905092915050565b610bd6610d9c565b73ffffffffffffffffffffffffffffffffffffffff16610bf46108b4565b73ffffffffffffffffffffffffffffffffffffffff1614610c4a576040517f08c379a0000000000000000000000000000000000000000000000000000000008152600401610c419061203c565b60405180910390fd5b600073ffffffffffffffffffffffffffffffffffffffff168173ffffffffffffffffffffffffffffffffffffffff161415610cba576040517f08c379a0000000000000000000000000000000000000000000000000000000008152600401610cb190611efc565b60405180910390fd5b610cc3816111a2565b50565b60007f01ffc9a7000000000000000000000000000000000000000000000000000000007bffffffffffffffffffffffffffffffffffffffffffffffffffffffff1916827bffffffffffffffffffffffffffffffffffffffffffffffffffffffff1916149050919050565b60008073ffffffffffffffffffffffffffffffffffffffff166002600084815260200190815260200160002060009054906101000a900473ffffffffffffffffffffffffffffffffffffffff1673ffffffffffffffffffffffffffffffffffffffff1614159050919050565b600033905090565b816004600083815260200190815260200160002060006101000a81548173ffffffffffffffffffffffffffffffffffffffff021916908373ffffffffffffffffffffffffffffffffffffffff160217905550808273ffffffffffffffffffffffffffffffffffffffff16610e17836106c2565b73ffffffffffffffffffffffffffffffffffffffff167f8c5be1e5ebec7d5bd14f71427d1e84f3dd0314c0f7b2291e5b200ac8c7c3b92560405160405180910390a45050565b6000610e6882610d30565b610ea7576040517f08c379a0000000000000000000000000000000000000000000000000000000008152600401610e9e90611f7c565b60405180910390fd5b6000610eb2836106c2565b90508073ffffffffffffffffffffffffffffffffffffffff168473ffffffffffffffffffffffffffffffffffffffff161480610f2157508373ffffffffffffffffffffffffffffffffffffffff16610f09846104a5565b73ffffffffffffffffffffffffffffffffffffffff16145b80610f325750610f318185610b3a565b5b91505092915050565b8273ffffffffffffffffffffffffffffffffffffffff16610f5b826106c2565b73ffffffffffffffffffffffffffffffffffffffff1614610fb1576040517f08c379a0000000000000000000000000000000000000000000000000000000008152600401610fa890611f1c565b60405180910390fd5b600073ffffffffffffffffffffffffffffffffffffffff168273ffffffffffffffffffffffffffffffffffffffff161415611021576040517f08c379a000000000000000000000000000000000000000000000000000000000815260040161101890611f3c565b60405180910390fd5b61102c8383836114ef565b611037600082610da4565b6001600360008573ffffffffffffffffffffffffffffffffffffffff1673ffffffffffffffffffffffffffffffffffffffff168152602001908152602001600020600082825461108791906121f7565b925050819055506001600360008473ffffffffffffffffffffffffffffffffffffffff1673ffffffffffffffffffffffffffffffffffffffff16815260200190815260200160002060008282546110de9190612170565b92505081905550816002600083815260200190815260200160002060006101000a81548173ffffffffffffffffffffffffffffffffffffffff021916908373ffffffffffffffffffffffffffffffffffffffff160217905550808273ffffffffffffffffffffffffffffffffffffffff168473ffffffffffffffffffffffffffffffffffffffff167fddf252ad1be2c89b69c2b068fc378daa952ba7f163c4a11628f55a4df523b3ef60405160405180910390a461119d8383836114f4565b505050565b6000600760009054906101000a900473ffffffffffffffffffffffffffffffffffffffff16905081600760006101000a81548173ffffffffffffffffffffffffffffffffffffffff021916908373ffffffffffffffffffffffffffffffffffffffff1602179055508173ffffffffffffffffffffffffffffffffffffffff168173ffffffffffffffffffffffffffffffffffffffff167f8be0079c531659141344cd1fd0a4f28419497f9722a3daafe3b4186f6b6457e060405160405180910390a35050565b8173ffffffffffffffffffffffffffffffffffffffff168373ffffffffffffffffffffffffffffffffffffffff1614156112d7576040517f08c379a00000000000000000000000000000000000000000000000000000000081526004016112ce90611f5c565b60405180910390fd5b80600560008573ffffffffffffffffffffffffffffffffffffffff1673ffffffffffffffffffffffffffffffffffffffff16815260200190815260200160002060008473ffffffffffffffffffffffffffffffffffffffff1673ffffffffffffffffffffffffffffffffffffffff16815260200190815260200160002060006101000a81548160ff0219169083151502179055508173ffffffffffffffffffffffffffffffffffffffff168373ffffffffffffffffffffffffffffffffffffffff167f17307eab39ab6107e8899845ad3d59bd9653f200f220920489ca2b5937696c31836040516113c89190611e9f565b60405180910390a3505050565b6113e0848484610f3b565b6113ec848484846114f9565b61142b576040517f08c379a000000000000000000000000000000000000000000000000000000000815260040161142290611edc565b60405180910390fd5b50505050565b606060405180602001604052806000815250905090565b606061145382610d30565b611492576040517f08c379a00000000000000000000000000000000000000000000000000000000081526004016114899061205c565b60405180910390fd5b600061149c611431565b905060008151116114bc57604051806020016040528060008152506114e7565b806114c684611690565b6040516020016114d7929190611e14565b6040516020818303038152906040525b915050919050565b505050565b505050565b600061151a8473ffffffffffffffffffffffffffffffffffffffff166117f1565b15611683578373ffffffffffffffffffffffffffffffffffffffff1663150b7a02611543610d9c565b8786866040518563ffffffff1660e01b81526004016115659493929190611e53565b602060405180830381600087803b15801561157f57600080fd5b505af19250505080156115b057506040513d601f19601f820116820180604052508101906115ad9190611add565b60015b611633573d80600081146115e0576040519150601f19603f3d011682016040523d82523d6000602084013e6115e5565b606091505b5060008151141561162b576040517f08c379a000000000000000000000000000000000000000000000000000000000815260040161162290611edc565b60405180910390fd5b805181602001fd5b63150b7a0260e01b7bffffffffffffffffffffffffffffffffffffffffffffffffffffffff1916817bffffffffffffffffffffffffffffffffffffffffffffffffffffffff191614915050611688565b600190505b949350505050565b606060008214156116d8576040518060400160405280600181526020017f300000000000000000000000000000000000000000000000000000000000000081525090506117ec565b600082905060005b6000821461170a5780806116f390612344565b915050600a8261170391906121c6565b91506116e0565b60008167ffffffffffffffff8111156117265761172561247a565b5b6040519080825280601f01601f1916602001820160405280156117585781602001600182028036833780820191505090505b5090505b600085146117e55760018261177191906121f7565b9150600a85611780919061238d565b603061178c9190612170565b60f81b8183815181106117a2576117a161244b565b5b60200101907effffffffffffffffffffffffffffffffffffffffffffffffffffffffffffff1916908160001a905350600a856117de91906121c6565b945061175c565b8093505050505b919050565b6000808273ffffffffffffffffffffffffffffffffffffffff163b119050919050565b6000611827611822846120fc565b6120d7565b905082815260208101848484011115611843576118426124ae565b5b61184e84828561229f565b509392505050565b60008135905061186581612923565b92915050565b60008135905061187a8161293a565b92915050565b60008135905061188f81612951565b92915050565b6000815190506118a481612951565b92915050565b600082601f8301126118bf576118be6124a9565b5b81356118cf848260208601611814565b91505092915050565b6000813590506118e781612968565b92915050565b600060208284031215611903576119026124b8565b5b600061191184828501611856565b91505092915050565b60008060408385031215611931576119306124b8565b5b600061193f85828601611856565b925050602061195085828601611856565b9150509250929050565b600080600060608486031215611973576119726124b8565b5b600061198186828701611856565b935050602061199286828701611856565b92505060406119a3868287016118d8565b9150509250925092565b600080600080608085870312156119c7576119c66124b8565b5b60006119d587828801611856565b94505060206119e687828801611856565b93505060406119f7878288016118d8565b925050606085013567ffffffffffffffff811115611a1857611a176124b3565b5b611a24878288016118aa565b91505092959194509250565b60008060408385031215611a4757611a466124b8565b5b6000611a5585828601611856565b9250506020611a668582860161186b565b9150509250929050565b60008060408385031215611a8757611a866124b8565b5b6000611a9585828601611856565b9250506020611aa6858286016118d8565b9150509250929050565b600060208284031215611ac657611ac56124b8565b5b6000611ad484828501611880565b91505092915050565b600060208284031215611af357611af26124b8565b5b6000611b0184828501611895565b91505092915050565b600060208284031215611b2057611b1f6124b8565b5b6000611b2e848285016118d8565b91505092915050565b611b408161222b565b82525050565b611b4f8161223d565b82525050565b6000611b608261212d565b611b6a8185612143565b9350611b7a8185602086016122ae565b611b83816124bd565b840191505092915050565b6000611b9982612138565b611ba38185612154565b9350611bb38185602086016122ae565b611bbc816124bd565b840191505092915050565b6000611bd282612138565b611bdc8185612165565b9350611bec8185602086016122ae565b80840191505092915050565b6000611c05603283612154565b9150611c10826124ce565b604082019050919050565b6000611c28602683612154565b9150611c338261251d565b604082019050919050565b6000611c4b602583612154565b9150611c568261256c565b604082019050919050565b6000611c6e602483612154565b9150611c79826125bb565b604082019050919050565b6000611c91601983612154565b9150611c9c8261260a565b602082019050919050565b6000611cb4602c83612154565b9150611cbf82612633565b604082019050919050565b6000611cd7603883612154565b9150611ce282612682565b604082019050919050565b6000611cfa602a83612154565b9150611d05826126d1565b604082019050919050565b6000611d1d602983612154565b9150611d2882612720565b604082019050919050565b6000611d40603183612154565b9150611d4b8261276f565b604082019050919050565b6000611d63602c83612154565b9150611d6e826127be565b604082019050919050565b6000611d86602083612154565b9150611d918261280d565b602082019050919050565b6000611da9602f83612154565b9150611db482612836565b604082019050919050565b6000611dcc602183612154565b9150611dd782612885565b604082019050919050565b6000611def603183612154565b9150611dfa826128d4565b604082019050919050565b611e0e81612295565b82525050565b6000611e208285611bc7565b9150611e2c8284611bc7565b91508190509392505050565b6000602082019050611e4d6000830184611b37565b92915050565b6000608082019050611e686000830187611b37565b611e756020830186611b37565b611e826040830185611e05565b8181036060830152611e948184611b55565b905095945050505050565b6000602082019050611eb46000830184611b46565b92915050565b60006020820190508181036000830152611ed48184611b8e565b905092915050565b60006020820190508181036000830152611ef581611bf8565b9050919050565b60006020820190508181036000830152611f1581611c1b565b9050919050565b60006020820190508181036000830152611f3581611c3e565b9050919050565b60006020820190508181036000830152611f5581611c61565b9050919050565b60006020820190508181036000830152611f7581611c84565b9050919050565b60006020820190508181036000830152611f9581611ca7565b9050919050565b60006020820190508181036000830152611fb581611cca565b9050919050565b60006020820190508181036000830152611fd581611ced565b9050919050565b60006020820190508181036000830152611ff581611d10565b9050919050565b6000602082019050818103600083015261201581611d33565b9050919050565b6000602082019050818103600083015261203581611d56565b9050919050565b6000602082019050818103600083015261205581611d79565b9050919050565b6000602082019050818103600083015261207581611d9c565b9050919050565b6000602082019050818103600083015261209581611dbf565b9050919050565b600060208201905081810360008301526120b581611de2565b9050919050565b60006020820190506120d16000830184611e05565b92915050565b60006120e16120f2565b90506120ed8282612313565b919050565b6000604051905090565b600067ffffffffffffffff8211156121175761211661247a565b5b612120826124bd565b9050602081019050919050565b600081519050919050565b600081519050919050565b600082825260208201905092915050565b600082825260208201905092915050565b600081905092915050565b600061217b82612295565b915061218683612295565b9250827fffffffffffffffffffffffffffffffffffffffffffffffffffffffffffffffff038211156121bb576121ba6123be565b5b828201905092915050565b60006121d182612295565b91506121dc83612295565b9250826121ec576121eb6123ed565b5b828204905092915050565b600061220282612295565b915061220d83612295565b9250828210156122205761221f6123be565b5b828203905092915050565b600061223682612275565b9050919050565b60008115159050919050565b60007fffffffff0000000000000000000000000000000000000000000000000000000082169050919050565b600073ffffffffffffffffffffffffffffffffffffffff82169050919050565b6000819050919050565b82818337600083830152505050565b60005b838110156122cc5780820151818401526020810190506122b1565b838111156122db576000848401525b50505050565b600060028204905060018216806122f957607f821691505b6020821081141561230d5761230c61241c565b5b50919050565b61231c826124bd565b810181811067ffffffffffffffff8211171561233b5761233a61247a565b5b80604052505050565b600061234f82612295565b91507fffffffffffffffffffffffffffffffffffffffffffffffffffffffffffffffff821415612382576123816123be565b5b600182019050919050565b600061239882612295565b91506123a383612295565b9250826123b3576123b26123ed565b5b828206905092915050565b7f4e487b7100000000000000000000000000000000000000000000000000000000600052601160045260246000fd5b7f4e487b7100000000000000000000000000000000000000000000000000000000600052601260045260246000fd5b7f4e487b7100000000000000000000000000000000000000000000000000000000600052602260045260246000fd5b7f4e487b7100000000000000000000000000000000000000000000000000000000600052603260045260246000fd5b7f4e487b7100000000000000000000000000000000000000000000000000000000600052604160045260246000fd5b600080fd5b600080fd5b600080fd5b600080fd5b6000601f19601f8301169050919050565b7f4552433732313a207472616e7366657220746f206e6f6e20455243373231526560008201527f63656976657220696d706c656d656e7465720000000000000000000000000000602082015250565b7f4f776e61626c653a206e6577206f776e657220697320746865207a65726f206160008201527f6464726573730000000000000000000000000000000000000000000000000000602082015250565b7f4552433732313a207472616e736665722066726f6d20696e636f72726563742060008201527f6f776e6572000000000000000000000000000000000000000000000000000000602082015250565b7f4552433732313a207472616e7366657220746f20746865207a65726f2061646460008201527f7265737300000000000000000000000000000000000000000000000000000000602082015250565b7f4552433732313a20617070726f766520746f2063616c6c657200000000000000600082015250565b7f4552433732313a206f70657261746f7220717565727920666f72206e6f6e657860008201527f697374656e7420746f6b656e0000000000000000000000000000000000000000602082015250565b7f4552433732313a20617070726f76652063616c6c6572206973206e6f74206f7760008201527f6e6572206e6f7220617070726f76656420666f7220616c6c0000000000000000602082015250565b7f4552433732313a2062616c616e636520717565727920666f7220746865207a6560008201527f726f206164647265737300000000000000000000000000000000000000000000602082015250565b7f4552433732313a206f776e657220717565727920666f72206e6f6e657869737460008201527f656e7420746f6b656e0000000000000000000000000000000000000000000000602082015250565b7f45524337323155524953746f726167653a2055524920717565727920666f722060008201527f6e6f6e6578697374656e7420746f6b656e000000000000000000000000000000602082015250565b7f4552433732313a20617070726f76656420717565727920666f72206e6f6e657860008201527f697374656e7420746f6b656e0000000000000000000000000000000000000000602082015250565b7f4f776e61626c653a2063616c6c6572206973206e6f7420746865206f776e6572600082015250565b7f4552433732314d657461646174613a2055524920717565727920666f72206e6f60008201527f6e6578697374656e7420746f6b656e0000000000000000000000000000000000602082015250565b7f4552433732313a20617070726f76616c20746f2063757272656e74206f776e6560008201527f7200000000000000000000000000000000000000000000000000000000000000602082015250565b7f4552433732313a207472616e736665722063616c6c6572206973206e6f74206f60008201527f776e6572206e6f7220617070726f766564000000000000000000000000000000602082015250565b61292c8161222b565b811461293757600080fd5b50565b6129438161223d565b811461294e57600080fd5b50565b61295a81612249565b811461296557600080fd5b50565b61297181612295565b811461297c57600080fd5b5056fea26469706673582212203c39d803b8c3cc4ee796b88cc0a6c396e9333a8c60e5ecce00ac8c2287cd4a3964736f6c63430008070033",
  "immutableReferences": {},
  "source": "//Contract based on [https://docs.openzeppelin.com/contracts/3.x/erc721](https://docs.openzeppelin.com/contracts/3.x/erc721)\n// SPDX-License-Identifier: MIT\npragma solidity ^0.8.7;\n\nimport \"@openzeppelin/contracts/token/ERC721/ERC721.sol\";\nimport \"@openzeppelin/contracts/utils/Counters.sol\";\nimport \"@openzeppelin/contracts/access/Ownable.sol\";\nimport \"@openzeppelin/contracts/token/ERC721/extensions/ERC721URIStorage.sol\";\nimport \"@openzeppelin/contracts/token/ERC721/extensions/ERC721Enumerable.sol\";\n\ncontract artist is ERC721URIStorage, Ownable {\n    // using Counters for Counters.Counter;\n    // Counters.Counter private _tokenIds;\n    // IERC20 token;\n    uint256 nftPrice;\n    \n\n    constructor() ERC721(\"artist\", \"ART\") {\n    nftPrice = 1e18;\n    }\n    \n\n    // function mintNFT(address recipient, string memory tokenURI) public onlyOwner returns (uint256) {\n    // _tokenIds.increment();\n    // uint256 newItemId = _tokenIds.current();\n    // _mint(recipient, newItemId);\n    // _setTokenURI(newItemId, tokenURI);\n    // return newItemId;\n    // }\n    \n    // function setToken (address tokenAddress) public onlyOwner returns (IERC20) {\n    // //  ERC-20 .\n    // require(tokenAddress != address(0x0));\n    // token = IERC20(tokenAddress);\n    // return token;\n    // }\n    \n    // function callPrice(IERC20 token, address recipient) public view returns (uint256) {\n    // // NFT     NFT .\n    // require(token.allowance(msg.sender, recipient) > nftPrice);\n    // return nftPrice;\n    // }\n    \n    // function price() public view returns (uint256){\n    // //  NFT .\n    // return nftPrice;\n    // }\n    \n    // function setPrice(uint256 price) public onlyOwner returns (bool){\n    // // NFT  .\n    // nftPrice = price;\n    // return true;\n    // }\n}\n",
  "sourcePath": "/Users/seomingyun/VSworkspace/BEB_space/project/project_3/BEB_02_project3_Art1st/contract/contracts/art1st.sol",
  "compiler": {
    "name": "solc",
    "version": "0.8.7+commit.e28d00a7.Emscripten.clang"
  },
  "schemaVersion": "3.4.4",
  "updatedAt": "2022-03-23T07:30:22.801Z",
  "devdoc": {
    "kind": "dev",
    "methods": {
      "approve(address,uint256)": {
        "details": "See {IERC721-approve}."
      },
      "balanceOf(address)": {
        "details": "See {IERC721-balanceOf}."
      },
      "getApproved(uint256)": {
        "details": "See {IERC721-getApproved}."
      },
      "isApprovedForAll(address,address)": {
        "details": "See {IERC721-isApprovedForAll}."
      },
      "name()": {
        "details": "See {IERC721Metadata-name}."
      },
      "owner()": {
        "details": "Returns the address of the current owner."
      },
      "ownerOf(uint256)": {
        "details": "See {IERC721-ownerOf}."
      },
      "renounceOwnership()": {
        "details": "Leaves the contract without owner. It will not be possible to call `onlyOwner` functions anymore. Can only be called by the current owner. NOTE: Renouncing ownership will leave the contract without an owner, thereby removing any functionality that is only available to the owner."
      },
      "safeTransferFrom(address,address,uint256)": {
        "details": "See {IERC721-safeTransferFrom}."
      },
      "safeTransferFrom(address,address,uint256,bytes)": {
        "details": "See {IERC721-safeTransferFrom}."
      },
      "setApprovalForAll(address,bool)": {
        "details": "See {IERC721-setApprovalForAll}."
      },
      "supportsInterface(bytes4)": {
        "details": "See {IERC165-supportsInterface}."
      },
      "symbol()": {
        "details": "See {IERC721Metadata-symbol}."
      },
      "tokenURI(uint256)": {
        "details": "See {IERC721Metadata-tokenURI}."
      },
      "transferFrom(address,address,uint256)": {
        "details": "See {IERC721-transferFrom}."
      },
      "transferOwnership(address)": {
        "details": "Transfers ownership of the contract to a new account (`newOwner`). Can only be called by the current owner."
      }
    },
    "version": 1
  },
  "userdoc": {
    "kind": "user",
    "methods": {},
    "version": 1
  }
}