{
  "contractName": "Batcher",
  "abi": [
    {
      "inputs": [
        {
          "internalType": "address",
          "name": "erc20addr",
          "type": "address"
        }
      ],
      "stateMutability": "nonpayable",
      "type": "constructor"
    },
    {
      "anonymous": false,
      "inputs": [
        {
          "indexed": true,
          "internalType": "address",
          "name": "previousOwner",
          "type": "address"
        },
        {
          "indexed": true,
          "internalType": "address",
          "name": "newOwner",
          "type": "address"
        }
      ],
      "name": "OwnershipTransferred",
      "type": "event"
    },
    {
      "inputs": [],
      "name": "owner",
      "outputs": [
        {
          "internalType": "address",
          "name": "",
          "type": "address"
        }
      ],
      "stateMutability": "view",
      "type": "function",
      "constant": true
    },
    {
      "inputs": [],
      "name": "renounceOwnership",
      "outputs": [],
      "stateMutability": "nonpayable",
      "type": "function"
    },
    {
      "inputs": [
        {
          "internalType": "address",
          "name": "newOwner",
          "type": "address"
        }
      ],
      "name": "transferOwnership",
      "outputs": [],
      "stateMutability": "nonpayable",
      "type": "function"
    },
    {
      "inputs": [
        {
          "internalType": "uint256[]",
          "name": "actions",
          "type": "uint256[]"
        },
        {
          "internalType": "address[]",
          "name": "froms",
          "type": "address[]"
        },
        {
          "internalType": "address[]",
          "name": "toes",
          "type": "address[]"
        },
        {
          "internalType": "uint256[]",
          "name": "amounts",
          "type": "uint256[]"
        }
      ],
      "name": "batchTransactions",
      "outputs": [
        {
          "internalType": "bool",
          "name": "",
          "type": "bool"
        }
      ],
      "stateMutability": "nonpayable",
      "type": "function"
    }
  ],
  "bytecode": "0x60806040523480156200001157600080fd5b506040516200102a3803806200102a8339818101604052810190620000379190620001e5565b620000576200004b6200010260201b60201c565b6200010a60201b60201c565b80600160006101000a81548173ffffffffffffffffffffffffffffffffffffffff021916908373ffffffffffffffffffffffffffffffffffffffff160217905550600160009054906101000a900473ffffffffffffffffffffffffffffffffffffffff16600260006101000a81548173ffffffffffffffffffffffffffffffffffffffff021916908373ffffffffffffffffffffffffffffffffffffffff160217905550506200026a565b600033905090565b60008060009054906101000a900473ffffffffffffffffffffffffffffffffffffffff169050816000806101000a81548173ffffffffffffffffffffffffffffffffffffffff021916908373ffffffffffffffffffffffffffffffffffffffff1602179055508173ffffffffffffffffffffffffffffffffffffffff168173ffffffffffffffffffffffffffffffffffffffff167f8be0079c531659141344cd1fd0a4f28419497f9722a3daafe3b4186f6b6457e060405160405180910390a35050565b600081519050620001df8162000250565b92915050565b600060208284031215620001fe57620001fd6200024b565b5b60006200020e84828501620001ce565b91505092915050565b600062000224826200022b565b9050919050565b600073ffffffffffffffffffffffffffffffffffffffff82169050919050565b600080fd5b6200025b8162000217565b81146200026757600080fd5b50565b610db0806200027a6000396000f3fe608060405234801561001057600080fd5b506004361061004c5760003560e01c8063715018a6146100515780638da5cb5b1461005b578063a58f41fc14610079578063f2fde38b146100a9575b600080fd5b6100596100c5565b005b61006361014d565b604051610070919061099c565b60405180910390f35b610093600480360381019061008e9190610802565b610176565b6040516100a09190610a17565b60405180910390f35b6100c360048036038101906100be91906107d5565b610496565b005b6100cd61058e565b73ffffffffffffffffffffffffffffffffffffffff166100eb61014d565b73ffffffffffffffffffffffffffffffffffffffff1614610141576040517f08c379a000000000000000000000000000000000000000000000000000000000815260040161013890610a52565b60405180910390fd5b61014b6000610596565b565b60008060009054906101000a900473ffffffffffffffffffffffffffffffffffffffff16905090565b600061018061058e565b73ffffffffffffffffffffffffffffffffffffffff1661019e61014d565b73ffffffffffffffffffffffffffffffffffffffff16146101f4576040517f08c379a00000000000000000000000000000000000000000000000000000000081526004016101eb90610a52565b60405180910390fd5b60005b8551811015610489576000600187838151811061021757610216610c11565b5b6020026020010151141561030f57600260009054906101000a900473ffffffffffffffffffffffffffffffffffffffff1673ffffffffffffffffffffffffffffffffffffffff16638a1bd7c086848151811061027657610275610c11565b5b602002602001015186858151811061029157610290610c11565b5b60200260200101516040518363ffffffff1660e01b81526004016102b69291906109ee565b602060405180830381600087803b1580156102d057600080fd5b505af11580156102e4573d6000803e3d6000fd5b505050506040513d601f19601f8201168201806040525081019061030891906108d9565b9050610435565b600287838151811061032457610323610c11565b5b6020026020010151141561043457600260009054906101000a900473ffffffffffffffffffffffffffffffffffffffff1673ffffffffffffffffffffffffffffffffffffffff1663386bc05a87848151811061038357610382610c11565b5b602002602001015187858151811061039e5761039d610c11565b5b60200260200101518786815181106103b9576103b8610c11565b5b60200260200101516040518463ffffffff1660e01b81526004016103df939291906109b7565b602060405180830381600087803b1580156103f957600080fd5b505af115801561040d573d6000803e3d6000fd5b505050506040513d601f19601f8201168201806040525081019061043191906108d9565b90505b5b80610475576040517f08c379a000000000000000000000000000000000000000000000000000000000815260040161046c90610a72565b60405180910390fd5b50808061048190610b99565b9150506101f7565b5060019050949350505050565b61049e61058e565b73ffffffffffffffffffffffffffffffffffffffff166104bc61014d565b73ffffffffffffffffffffffffffffffffffffffff1614610512576040517f08c379a000000000000000000000000000000000000000000000000000000000815260040161050990610a52565b60405180910390fd5b600073ffffffffffffffffffffffffffffffffffffffff168173ffffffffffffffffffffffffffffffffffffffff161415610582576040517f08c379a000000000000000000000000000000000000000000000000000000000815260040161057990610a32565b60405180910390fd5b61058b81610596565b50565b600033905090565b60008060009054906101000a900473ffffffffffffffffffffffffffffffffffffffff169050816000806101000a81548173ffffffffffffffffffffffffffffffffffffffff021916908373ffffffffffffffffffffffffffffffffffffffff1602179055508173ffffffffffffffffffffffffffffffffffffffff168173ffffffffffffffffffffffffffffffffffffffff167f8be0079c531659141344cd1fd0a4f28419497f9722a3daafe3b4186f6b6457e060405160405180910390a35050565b600061066d61066884610ab7565b610a92565b905080838252602082019050828560208602820111156106905761068f610c74565b5b60005b858110156106c057816106a6888261073a565b845260208401935060208301925050600181019050610693565b5050509392505050565b60006106dd6106d884610ae3565b610a92565b90508083825260208201905082856020860282011115610700576106ff610c74565b5b60005b85811015610730578161071688826107c0565b845260208401935060208301925050600181019050610703565b5050509392505050565b60008135905061074981610d35565b92915050565b600082601f83011261076457610763610c6f565b5b813561077484826020860161065a565b91505092915050565b600082601f83011261079257610791610c6f565b5b81356107a28482602086016106ca565b91505092915050565b6000815190506107ba81610d4c565b92915050565b6000813590506107cf81610d63565b92915050565b6000602082840312156107eb576107ea610c7e565b5b60006107f98482850161073a565b91505092915050565b6000806000806080858703121561081c5761081b610c7e565b5b600085013567ffffffffffffffff81111561083a57610839610c79565b5b6108468782880161077d565b945050602085013567ffffffffffffffff81111561086757610866610c79565b5b6108738782880161074f565b935050604085013567ffffffffffffffff81111561089457610893610c79565b5b6108a08782880161074f565b925050606085013567ffffffffffffffff8111156108c1576108c0610c79565b5b6108cd8782880161077d565b91505092959194509250565b6000602082840312156108ef576108ee610c7e565b5b60006108fd848285016107ab565b91505092915050565b61090f81610b20565b82525050565b61091e81610b32565b82525050565b6000610931602683610b0f565b915061093c82610c94565b604082019050919050565b6000610954602083610b0f565b915061095f82610ce3565b602082019050919050565b6000610977601283610b0f565b915061098282610d0c565b602082019050919050565b61099681610b5e565b82525050565b60006020820190506109b16000830184610906565b92915050565b60006060820190506109cc6000830186610906565b6109d96020830185610906565b6109e6604083018461098d565b949350505050565b6000604082019050610a036000830185610906565b610a10602083018461098d565b9392505050565b6000602082019050610a2c6000830184610915565b92915050565b60006020820190508181036000830152610a4b81610924565b9050919050565b60006020820190508181036000830152610a6b81610947565b9050919050565b60006020820190508181036000830152610a8b8161096a565b9050919050565b6000610a9c610aad565b9050610aa88282610b68565b919050565b6000604051905090565b600067ffffffffffffffff821115610ad257610ad1610c40565b5b602082029050602081019050919050565b600067ffffffffffffffff821115610afe57610afd610c40565b5b602082029050602081019050919050565b600082825260208201905092915050565b6000610b2b82610b3e565b9050919050565b60008115159050919050565b600073ffffffffffffffffffffffffffffffffffffffff82169050919050565b6000819050919050565b610b7182610c83565b810181811067ffffffffffffffff82111715610b9057610b8f610c40565b5b80604052505050565b6000610ba482610b5e565b91507fffffffffffffffffffffffffffffffffffffffffffffffffffffffffffffffff821415610bd757610bd6610be2565b5b600182019050919050565b7f4e487b7100000000000000000000000000000000000000000000000000000000600052601160045260246000fd5b7f4e487b7100000000000000000000000000000000000000000000000000000000600052603260045260246000fd5b7f4e487b7100000000000000000000000000000000000000000000000000000000600052604160045260246000fd5b600080fd5b600080fd5b600080fd5b600080fd5b6000601f19601f8301169050919050565b7f4f776e61626c653a206e6577206f776e657220697320746865207a65726f206160008201527f6464726573730000000000000000000000000000000000000000000000000000602082015250565b7f4f776e61626c653a2063616c6c6572206973206e6f7420746865206f776e6572600082015250565b7f7472616e73616374696f6e206661696c65640000000000000000000000000000600082015250565b610d3e81610b20565b8114610d4957600080fd5b50565b610d5581610b32565b8114610d6057600080fd5b50565b610d6c81610b5e565b8114610d7757600080fd5b5056fea2646970667358221220854c5d75690aed31a249ae70e2b95cc684071cc57986e66d065e19856700fc9c64736f6c63430008070033",
  "immutableReferences": {},
  "source": "// SPDX-License-Identifier: GPL-3.0\npragma solidity ^0.8.7;\n\nimport \"@openzeppelin/contracts/access/Ownable.sol\";\n\ncontract Art1stTokenInterface {\n    function compensate(address to, uint amount) external returns (bool) {}\n    function donate(address from, address to, uint amount) external returns (bool) {}\n\n}\n\ncontract Batcher is Ownable {\n    address art1stTokenAddress; \n    Art1stTokenInterface Art1stTokenContract;\n\n    constructor(address erc20addr) {\n        art1stTokenAddress = erc20addr;\n        Art1stTokenContract = Art1stTokenInterface(art1stTokenAddress);\n    }\n\n    function batchTransactions(uint[] memory actions, address[] memory froms, address[] memory toes, uint[] memory amounts) public onlyOwner returns (bool){\n        // actions: compensate, donation -> compensate: 1, donation: 2\n        for (uint i=0; i<actions.length; i++) {\n            bool success; \n\n            if (actions[i] == 1){\n                // compensate\n                success = Art1stTokenContract.compensate(toes[i], amounts[i]);\n            }\n            else if (actions[i] == 2) {\n                success = Art1stTokenContract.donate(froms[i], toes[i], amounts[i]);\n            }\n\n            if (!success) revert('transaction failed');\n        }\n\n        return true;\n    }\n}",
  "sourcePath": "/Users/seomingyun/VSworkspace/BEB_space/project/project_3/BEB_02_project3_Art1st/contract/contracts/Batcher.sol",
  "compiler": {
    "name": "solc",
    "version": "0.8.7+commit.e28d00a7.Emscripten.clang"
  },
  "schemaVersion": "3.4.4",
  "updatedAt": "2022-03-25T06:59:10.958Z",
  "networkType": "ethereum",
  "devdoc": {
    "kind": "dev",
    "methods": {
      "owner()": {
        "details": "Returns the address of the current owner."
      },
      "renounceOwnership()": {
        "details": "Leaves the contract without owner. It will not be possible to call `onlyOwner` functions anymore. Can only be called by the current owner. NOTE: Renouncing ownership will leave the contract without an owner, thereby removing any functionality that is only available to the owner."
      },
      "transferOwnership(address)": {
        "details": "Transfers ownership of the contract to a new account (`newOwner`). Can only be called by the current owner."
      }
    },
    "version": 1
  },
  "userdoc": {
    "kind": "user",
    "methods": {},
    "version": 1
  }
}